:1000000008308A0000280000FF00030E8301A100D1
:100010000A08A0008A010408A2007708A300780853
:10002000A4007908A5007A08A6007B08A70003179A
:100030000D080313A80003170F080313A9000317E3
:100040000C080313AA0003170E080313AB00831355
:1000500083120B1E2D288B1856288C308400801E8E
:1000600033288C1A5928220884002308F700240812
:10007000F8002508F9002608FA002708FB002808E0
:1000800003178D000313290803178F0003132A0891
:1000900003178C0003132B0803178E00031320088B
:1000A0008A00210E8300FF0E7F0E09008A110A12BA
:1000B000192C8A110A128A2B0A108A100A11633E1F
:1000C00003188A0A820000340034003400340034FB
:1000D000003400345F34003400340034073400341A
:1000E0000734003414347F3414347F34143424340B
:1000F0002A347F342A3412342334133408346434D9
:1001000062343634493455342234503400340534A2
:1001100003340034003400341C34223441340034BD
:100120000034413422341C340034143408343E3456
:1001300008341434083408343E34083408340034A5
:10014000503430340034003408340834083408346F
:100150000834003460346034003400342034103407
:100160000834043402343E345134493445343E3486
:10017000003442347F3440340034423461345134EA
:10018000493446342134413445344B343134183405
:10019000143412347F341034273445344534453414
:1001A00039343C344A3449344934303401347134BC
:1001B0000934053403343634493449344934363447
:1001C00006344934493429341E3400343634363444
:1001D00000340034003456343634003400340834EB
:1001E00014342234413400341434143414341434A8
:1001F00014340034413422341434083402340134C9
:1002000051340934063432344934793441343E347B
:100210007E341134113411347E347F3449344934FE
:10022000493436343E3441344134413422347F340D
:100230004134413422341C347F3449344934493404
:1002400041347F3409340934093401343E344134B3
:10025000493449347A347F340834083408347F34DC
:10026000003441347F34413400342034403441344C
:100270003F3401347F3408341434223441347F3421
:1002800040344034403440347F3402340C3402343F
:100290007F347F340434083410347F343E344134A6
:1002A000413441343E340A148A100A115A3E03186C
:1002B0008A0A82007F3409340934093406343E3412
:1002C0004134513421345E347F34093419342934B3
:1002D00046344634493449344934313401340134E4
:1002E0007F34013401343F344034403440343F34AF
:1002F0001F342034403420341F343F3440343834E9
:1003000040343F34633414340834143463340734D1
:100310000834703408340734613451344934453476
:10032000433400347F3441344134003402340434E3
:100330000834103420340034413441347F340034E4
:100340000434023401340234043440344034403440
:100350004034403400340134023404340034203456
:1003600054345434543478347F344834443444342A
:100370003834383444344434443420343834443405
:10038000443448347F343834543454345434183476
:1003900008347E340934013402340C34523452347B
:1003A00052343E347F340834043404347834003416
:1003B00044347D34403400342034403444343D34BB
:1003C00000347F3410342834443400340034413451
:1003D0007F34403400347C340434183404347834AA
:1003E0007C340834043404347834383444344434A9
:1003F000443438347C341434143414340834083419
:100400001434143418347C347C3408340434043404
:1004100008344834543454345434203404343F348D
:100420004434403420343C344034403420347C3430
:100430001C342034403420341C343C3440343034B8
:1004400040343C34443428341034283444340C349C
:100450005034503450343C344434643454344C3488
:100460004434003408343634413400340034003429
:100470007F340034003400344134363408340034DE
:100480001034083408341034083478344634413495
:1004900046347834FB0002307A078A007B08533EEA
:1004A00003188A0A8200F034FC340E340334833497
:1004B000C334C3346734FE34F8340F347F347634B5
:1004C000C334C334C134C03460343F341F340C34BB
:1004D000063406340334FF34FF34FF340034003470
:1004E0000034C034C034C034C034FF34FF34FF346F
:1004F000C034C034C0340634063403340334033407
:100500000334C734FE347C340034E034F034F8343F
:10051000DC34CE34C734C334C134C034C0340334C3
:1005200003348334833483348334C334FF347E34DC
:100530003834C034C034C134C134C134C134C1349E
:10054000E3347F343E3400348034E03470343C345F
:100550001E340734FF34FF3400340F340F340D34AD
:100560000C340C340C340C34FF34FF340C34FF34B2
:10057000FF34C334C334C334C334C3348334033487
:100580000334C034C034C034C034C034E0346134C7
:100590007F343F340034FC34FE34CF34C734C334AA
:1005A000C334C334C334833400343F347F34E13440
:1005B000C034C034C034C034E1347F343F340334F9
:1005C00003340334033403348334E334FB343F34DF
:1005D0000F340034C034F03478343E340F340334F4
:1005E0000034003400343C347E34E734C334C33444
:1005F000C334C334E7347E343C343E347F34E33494
:10060000C134C134C134C134E3347F343E34FC34AA
:10061000FE34873403340334033403348734FE3424
:10062000FC340034C134C334C334C334C334E3347E
:1006300073343F341F340034003400340034003449
:10064000003400340034003400340034003400340A
:10065000E034F034F034E03400340034003400345A
:10066000003400343034703470347034003400346A
:1006700000340034003400346034E034E034E034DA
:1006800000340034003400340034003400340034CA
:1006900000340034003400340034003400340034BA
:1006A0000034003400340034003400340034432477
:1006B00055104E24412A000054245510C8204900EA
:1006C00054245510C220000154245510D42A00018E
:1006D00054245510CE204D0054245510D3205500DD
:1006E00054245510C2205900D722CC21CF26C51042
:1006F0000001D3306E107034E136A031F5300001C6
:100700004E24CF26A01B0001C3376E37E531F434E9
:10071000EE3320008C1E8A2B1A08C6004608403C87
:10072000031D942B4A14B62B4608233C031D9A2B19
:10073000CA14B62B4608243C031DAA2B6B08840060
:1007400083136C18831746088000EC014B30EB00D4
:10075000CA10B62BCA1CB62B6B08840083136C1806
:10076000831746088000EB0A0319EC0A8C128A11E1
:100770000A12332813088316500883129300831635
:10078000140C031CC02B83121308F80008008316F6
:10079000881183128811831685128312851283169D
:1007A0004F08D0008312BA23831685128312851650
:1007B000080083164D0807394038CE00CF00831259
:1007C000C72383164C087F398038CE00CF008312B0
:1007D000C723080083168811831288158316851293
:1007E000831285120330F700F70BF42B83164C08A5
:1007F000D0008312BA23831685128312851608004F
:100800008316CC01CD018312D9230130B300F83017
:10081000B200B208031D0F2CB3080319182C83165D
:10082000CC018312EA2332080319B303B203092C63
:100830000800B708031D3A2C0130B70083160816CC
:100840008312B901081AB90A831688168312B801EF
:10085000881AB80A8101BA0A00243A08033C031C2A
:10086000BA013A08023C031D392C40300C1E362CCC
:100870009900402C0108313C0318402CB70181013C
:100880008B108A110A123328432455104E24412A12
:10089000000154245510C820490054245510C2208A
:1008A000000154245510D42A000154245510CE20A0
:1008B0004D0054245510D320550054245510C22007
:1008C00059002000CC376132693767172E170001B5
:1008D000D4326D382E1D200020004300C83A6D1719
:1008E0003A100001A0120001D732613AE8327210CA
:1008F000F437E430791D000120004139EC306D10EF
:10090000613A3A00BD308400831300080319952C26
:100910000630F800F701F70B8B2CF80B8A2C7B3094
:10092000F700F70B912C800B882C0800F701F801D9
:100930008316450803104618F707F70CF80CC6187D
:10094000F707F70CF80C4619F707F70CF80CC6195F
:10095000F707F70CF80C461AF707F70CF80CC61A4D
:10096000F707F70CF80C461BF707F70CF80CC61B3B
:10097000F707F70CF80C8312080083163F08831260
:10098000AF002F081F3C03180D2D2F087F3C031CC0
:100990000D2DAE012E08043C031C032D2F084F3CE7
:1009A000031CE22C2F08E03E8316C100C500053071
:1009B000C600831296247808B0002E0830075C2009
:1009C000F800B1002F084F3C0318F62C2F08B03E5A
:1009D0008316C100C5000530C6008312962478082E
:1009E000B0002E0830075321F800B100AC018B1B7A
:1009F000AC178B1331088316CC008312EA23AC1B8F
:100A00008B17AE0ACA2CAC018B1BAC178B13831649
:100A1000CC018312EA23AC1B8B1708000B0883164A
:100A2000BC0083128B13831603178C170C14000061
:100A300000000313BC1F1F2D83128B178316831214
:100A400003170C087F390319802D83160313BC008C
:100A5000831203170D0883160313BD0083120317B7
:100A60000F0883160313BE003C08BF008312BD2489
:100A700083163D08831203178D00831603133E0867
:100A8000831203178F0003130B088316BF00831212
:100A90008B13831603178C170C140000000003132C
:100AA000BF1F552D83128B178316831203170C0D4E
:100AB0000E0D7F390319802D83160313BC0083129A
:100AC00003170D0883160313BD00831203170F08C5
:100AD00083160313BE003C08BF008312BD24831697
:100AE0003D08831203178D00831603133E088312FB
:100AF00003178F008D0A03198F0A03130E2D031796
:100B000003130800831603170908C039890003136B
:100B10001F129F12003003178800831203131F1047
:100B20008316031787152A300313990000309A00A3
:100B3000A630980090308312980083168C16C0302F
:100B400083128B040B16831601130108C039073872
:100B500081003530831290008E010B308F00DC3025
:100B60008E008316881183128815831685128312CE
:100B70008516C8308316BC000330BC02031CCA2D86
:100B8000BC308400831300080319CA2DC82DC82D5A
:100B9000800BC72D08118312081132308316BD0057
:100BA000831282248316081183120815AC018B1B53
:100BB000AC178B1321308316CF008312C723AC1BD5
:100BC0008B17AC018B1BAC178B13C8308316CF006F
:100BD0008312C723AC1B8B17AC018B1BAC178B1379
:100BE00012308316CF008312C723AC1B8B17AC01C6
:100BF0008B1BAC178B1320308316CF008312C723B7
:100C0000AC1B8B17AC018B1BAC178B1309308316F5
:100C1000CF008312C723AC1B8B1732308316BD0065
:100C200083128224AC018B1BAC178B130024AC1BEA
:100C30008B170A308316BD0083128224AC018B1BF4
:100C4000AC178B1308308316CF008312C723AC1B5D
:100C50008B170A308316BD0083128224AC018B1BD4
:100C6000AC178B130C308316CF008312C723AC1B39
:100C70008B170C14AC018B1BAC178B13163083161F
:100C8000CC000130CD008312D923AC1B8B177430FC
:100C900003178D0003308F0003130E25AC018B1B4F
:100CA000AC178B130C308316CC000230CD008312AE
:100CB000D923AC1B8B17793003178D0003308F00BD
:100CC00003130E25AC018B1BAC178B131B30831643
:100CD000CC000330CD008312D923AC1B8B1780309E
:100CE00003178D0003308F0003130E250830831681
:100CF000BC00FA30BD00831282248316BC0B792E0F
:100D00008312AC018B1BAC178B130024AC1B8B170D
:100D1000AC018B1BAC178B130A308316CC0002304E
:100D2000CD008312D923AC1B8B17843003178D00A1
:100D300003308F0003130E25AC018B1BAC178B13F4
:100D40000F308316CC000330CD008312D923AC1BA7
:100D50008B174A18CC2EAC018B1BAC178B13803031
:100D60008316CC008312EA23AC1B8B17AC018B1BC0
:100D7000AC178B138316CC018312EA23AC1B8B17A1
:100D800002308316BC00FA30BD0083128224831621
:100D9000BC0BC32E8312A92EAC018B1BAC178B137B
:100DA0000024AC1B8B17CA18D82E5408BF00D32EB2
:100DB0005508BF008A150A1251288316881083121D
:100DC000881432308316BD00831282248316881063
:100DD00083128810080083163D08F8013C020318AE
:100DE000F42E3C08F700002FF7010830BE00BC0DC0
:100DF000F70D3D0877020318F700F80DBE0BF72E2C
:100E0000831208008316C2014208013C031C5B2FB9
:100E100042084007C4008312AC018B1BAC178B1334
:100E200083163F08CC004408CD008312D923AC1BA5
:100E30008B178316C3014308093C031C592F3E0836
:100E4000C5001430C6008312962478088316C400A7
:100E50000A30C5004208C60083129624780883161B
:100E600044074307C1003E080C3C031D442F831276
:100E7000AC018B1BAC178B138316CC018312EA23B6
:100E8000AC1B8B17562F8316FA01410883124A2296
:100E90008316C4008312AC018B1BAC178B13831613
:100EA0004408CC008312EA23AC1B8B178316C30AB9
:0A0EB0001B2FC20A042F8312080052
:1010000003081F398300831603178715083003135D
:10101000990002309A00A630980090308312980010
:10102000FF30AD00941200308316940030308312EC
:101030009400AD122D088316870083122D162D08FB
:10104000831687008312AD112D0883168700831243
:10105000B501B401B601B701BA01BB01BC01BD01C4
:10106000BE01BF01C001C101C201C301C401C5016C
:101070004A10CA10EC014B30EB00ED018316031748
:101080000908C039890003131F129F12003003178B
:101090008800831287018801890183138A11031351
:1010A000822D8A1504308316B0000230B1000A3058
:1010B000B2000230B3008A118312DD268A150C1C9F
:1010C00092280C108E010B308F00DC308E00C70A86
:1010D00047080A3C031D7A28C80A48083B3C031805
:1010E0007928C8018A11DD268A1540300C1E762821
:1010F0009900C70148088316BC000A30BD008A1158
:101100008312EB268A1530307807BF004808831613
:10111000BC000A30BD008A118312EB268A153030DC
:101120007707C0003A0B112A4B08BB004C08BC00E3
:101130004D08BD004E08BE004F08C300AC018B1B1C
:10114000AC178B1319308316CC00CD018A11831292
:10115000D9238A15AC1B8B17303043028316BC0091
:10116000BF008A118312BD248A154308303C031D39
:10117000C228443003178D0004308F008A110313F6
:101180000E258A154308313C031DCF28493003172B
:101190008D0004308F008A1103130E258A15430831
:1011A000323C031DDC284D3003178D0004308F00C6
:1011B0008A1103130E258A154308333C031DE928C1
:1011C000513003178D0004308F008A1103130E2550
:1011D0008A154308343C031DF628553003178D004B
:1011E00004308F008A1103130E258A154308353CFD
:1011F000031D0329593003178D0004308F008A1115
:1012000003130E258A154308363C031D10295D3053
:1012100003178D0004308F008A1103130E258A15E1
:1012200030303B028316BC00BE003008BF003108DE
:10123000C0008A11831202278A1530303C028316BF
:10124000BC000C303007BD003C08BE003D08BF00AC
:101250003108C0008A11831202278A1518308316BC
:101260003007BC000B30BE003C08BF003108C00096
:101270008A11831202278A1530303D028316BC0082
:1012800024303007BD003C08BE003D08BF003108D7
:10129000C0008A11831202278A1530303E0283165D
:1012A000BC0030303007BD003C08BE003D08BF0028
:1012B0003108C0008A11831202278A156130031792
:1012C0008D0004308F008A1103130E258A153F0804
:1012D0008316BF008A118312BD248A154008831625
:1012E000BF008A118312BD248A15AC018B1BAC1779
:1012F0008B1328308316CC000530CD008A11831261
:10130000D9238A15AC1B8B17AC018B1BAC178B1325
:1013100080308316CC008A118312EA238A15AC1B15
:101320008B17AC018B1BAC178B1380308316CC0052
:101330008A118312EA238A15AC1B8B17AC018B1B15
:10134000AC178B138316CC018A118312EA238A15FA
:10135000AC1B8B17AC018B1BAC178B136030831647
:10136000CC008A118312EA238A15AC1B8B17AC01BF
:101370008B1BAC178B1360308316CC008A11831241
:10138000EA238A15AC1B8B17AC018B1BAC178B1394
:101390008316CC018A118312EA238A15AC1B8B17A2
:1013A000AC018B1BAC178B1380308316CC008A11D9
:1013B0008312EA238A15AC1B8B17AC018B1BAC176D
:1013C0008B1380308316CC008A118312EA238A158E
:1013D000AC1B8B17AC018B1BAC178B138316CC018A
:1013E0008A118312EA238A15AC1B8B17AC018B1B65
:1013F000AC178B1380308316CC008A118312EA233A
:101400008A15AC1B8B17AC018B1BAC178B13803070
:101410008316CC008A118312EA238A15AC1B8B1722
:101420008C2DBA08031D872B5008C1005108C2003B
:101430005208C4005308C500C108031D402AAC016E
:101440008B1BAC178B138A1100248A15AC1B8B17CE
:10145000AC018B1BAC178B130A308316CC00033006
:10146000CD008A118312D9238A15AC1B8B176230E9
:1014700003178D0004308F008A1103130E258A157F
:10148000AC018B1BAC178B1304308316CC000130DE
:10149000CD008A118312D9238A15AC1B8B176830B3
:1014A00003178D0004308F008A1103130E258A154F
:1014B000AC018B1BAC178B1337308316CC0001307B
:1014C000CD008A118312D9238A15AC1B8B174108D2
:1014D0008316BF008A118312BD248A154208831621
:1014E000BF008A118312BD248A156C3003178D004A
:1014F00004308F008A1103130E258A15AC018B1B53
:10150000AC178B1303308316CC008A118312EA23A5
:101510008A15AC1B8B17AC018B1BAC178B130330DC
:101520008316CC008A118312EA238A15AC1B8B1711
:10153000AC018B1BAC178B138316CC018A11831261
:10154000EA238A15AC1B8B176D3003178D0004300E
:101550008F008A1103130E258A15AC018B1BAC1763
:101560008B1305308316CC000330CD008A11831213
:10157000D9238A15AC1B8B176E3003178D000430EE
:101580008F008A1103130E258A15AC018B1BAC1733
:101590008B1337308316CC000330CD008A118312B1
:1015A000D9238A15AC1B8B1744088316BF008A11F8
:1015B0008312BD248A1545088316BF008A11831241
:1015C000BD248A15723003178D0004308F008A11F4
:1015D00003130E258A15AC018B1BAC178B13283017
:1015E0008316CC000530CD008A118312D9238A15C9
:1015F000AC1B8B17AC018B1BAC178B1360308316A5
:10160000CC008A118312EA238A15AC1B8B17AC011C
:101610008B1BAC178B1360308316CC008A1183129E
:10162000EA238A15AC1B8B17AC018B1BAC178B13F1
:101630008316CC018A118312EA238A15AC1B8B17FF
:10164000AC018B1BAC178B1380308316CC008A1136
:101650008312EA238A15AC1B8B17AC018B1BAC17CA
:101660008B1380308316CC008A118312EA238A15EB
:10167000AC1B8B17AC018B1BAC178B138316CC01E7
:101680008A118312EA238A15AC1B8B17AC018B1BC2
:10169000AC178B1380308316CC008A118312EA2397
:1016A0008A15AC1B8B17AC018B1BAC178B138030CE
:1016B0008316CC008A118312EA238A15AC1B8B1780
:1016C000AC018B1BAC178B138316CC018A118312D0
:1016D000EA238A15AC1B8B17AC018B1BAC178B1341
:1016E00080308316CC008A118312EA238A15AC1B42
:1016F0008B17AC018B1BAC178B1380308316CC007F
:101700008A118312EA238A15AC1B8B178C2D3A0899
:10171000023C031D872CAC018B1BAC178B1383166B
:10172000CC01CD018A118312D9238A15AC1B8B17EA
:10173000743003178D0004308F008A1103130E25B7
:101740008A15AC018B1BAC178B130F308316CC00A2
:101750000230CD008A118312D9238A15AC1B8B1756
:1017600009308316B40034081F3C031CEA2B4B30AD
:101770003407840083130008243C0319EA2B4B3000
:101780003407840083130008203C031DDC2B093040
:101790003402B50035080E3C031CDB2B7C30831271
:1017A00003178D0004308F008A1103130E258A154C
:1017B0008316B50ACA2BE82B4B30340784008313F9
:1017C0000008BC00BF008A118312BD248A1583164D
:1017D000B40AB32B8312AC018B1BAC178B132830CC
:1017E0008316CC000530CD008A118312D9238A15C7
:1017F000AC1B8B17AC018B1BAC178B138030831683
:10180000CC008A118312EA238A15AC1B8B17AC011A
:101810008B1BAC178B1380308316CC008A1183127C
:10182000EA238A15AC1B8B17AC018B1BAC178B13EF
:101830008316CC018A118312EA238A15AC1B8B17FD
:10184000AC018B1BAC178B1380308316CC008A1134
:101850008312EA238A15AC1B8B17AC018B1BAC17C8
:101860008B1380308316CC008A118312EA238A15E9
:10187000AC1B8B17AC018B1BAC178B138316CC01E5
:101880008A118312EA238A15AC1B8B17AC018B1BC0
:10189000AC178B1360308316CC008A118312EA23B5
:1018A0008A15AC1B8B17AC018B1BAC178B136030EC
:1018B0008316CC008A118312EA238A15AC1B8B177E
:1018C000AC018B1BAC178B138316CC018A118312CE
:1018D000EA238A15AC1B8B17AC018B1BAC178B133F
:1018E00080308316CC008A118312EA238A15AC1B40
:1018F0008B17AC018B1BAC178B1380308316CC007D
:101900008A118312EA238A15AC1B8B178C2D3A0897
:10191000033C031D8C2D04308316B6000230B70043
:101920000230B8000330B900BA01BB008312AC0129
:101930008B1BAC178B1301308316CC00CD018A11A1
:101940008312D9238A15AC1B8B177D3003178D00AA
:1019500004308F008A1103130E258A158316380868
:10196000BE003208BF003308C0008A11831202276C
:101970008A150C3083163207BC003908BE003C08BB
:10198000BF003308C0008A11831202278A1518305D
:1019900083163207BC000B30BE003C08BF00330882
:1019A000C0008A11831202278A1524308316320759
:1019B000BC003A08BE003C08BF003308C0008A11D2
:1019C000831202278A15303083163207BC003B0889
:1019D000BE003C08BF003308C0008A1183120227F2
:1019E0008A15AC018B1BAC178B1328308316CC00E7
:1019F0000530CD008A118312D9238A15AC1B8B17B1
:101A0000AC018B1BAC178B1380308316CC008A1172
:101A10008312EA238A15AC1B8B17AC018B1BAC1706
:101A20008B1380308316CC008A118312EA238A1527
:101A3000AC1B8B17AC018B1BAC178B138316CC0123
:101A40008A118312EA238A15AC1B8B17AC018B1BFE
:101A5000AC178B1380308316CC008A118312EA23D3
:101A60008A15AC1B8B17AC018B1BAC178B1380300A
:101A70008316CC008A118312EA238A15AC1B8B17BC
:101A8000AC018B1BAC178B138316CC018A1183120C
:101A9000EA238A15AC1B8B17AC018B1BAC178B137D
:101AA00080308316CC008A118312EA238A15AC1B7E
:101AB0008B17AC018B1BAC178B1380308316CC00BB
:101AC0008A118312EA238A15AC1B8B17AC018B1B7E
:101AD000AC178B138316CC018A118312EA238A1563
:101AE000AC1B8B17AC018B1BAC178B1360308316B0
:101AF000CC008A118312EA238A15AC1B8B17AC0128
:101B00008B1BAC178B1360308316CC008A118312A9
:101B1000EA238A15AC1B8B1764308316BD008A112B
:0A1B2000831282248A155F286300F7
:04400E00E22C000799
:00000001FF
;PIC16F887
;CRC=8B24  CREATED="17-Dec-19 18:23"
