:1000000009308A002C290000FF00030E8301A100A3
:100010000A08A0008A010408A2007708A300780853
:10002000A4007908A5007A08A6007B08A70003179A
:100030000D080313A80003170F080313A9000317E3
:100040000C080313AA0003170E080313AB00831355
:1000500083120B1E2D288B1856288C308400801E8E
:1000600033288C1A5928220884002308F700240812
:10007000F8002508F9002608FA002708FB002808E0
:1000800003178D000313290803178F0003132A0891
:1000900003178C0003132B0803178E00031320088B
:1000A0008A00210E8300FF0E7F0E09008A110A12BA
:1000B000332E8A110A12DE2D0A108A100A11633EAD
:1000C00003188A0A820000340034003400340034FB
:1000D000003400345F34003400340034073400341A
:1000E0000734003414347F3414347F34143424340B
:1000F0002A347F342A3412342334133408346434D9
:1001000062343634493455342234503400340534A2
:1001100003340034003400341C34223441340034BD
:100120000034413422341C340034143408343E3456
:1001300008341434083408343E34083408340034A5
:10014000503430340034003408340834083408346F
:100150000834003460346034003400342034103407
:100160000834043402343E345134493445343E3486
:10017000003442347F3440340034423461345134EA
:10018000493446342134413445344B343134183405
:10019000143412347F341034273445344534453414
:1001A00039343C344A3449344934303401347134BC
:1001B0000934053403343634493449344934363447
:1001C00006344934493429341E3400343634363444
:1001D00000340034003456343634003400340834EB
:1001E00014342234413400341434143414341434A8
:1001F00014340034413422341434083402340134C9
:1002000051340934063432344934793441343E347B
:100210007E341134113411347E347F3449344934FE
:10022000493436343E3441344134413422347F340D
:100230004134413422341C347F3449344934493404
:1002400041347F3409340934093401343E344134B3
:10025000493449347A347F340834083408347F34DC
:10026000003441347F34413400342034403441344C
:100270003F3401347F3408341434223441347F3421
:1002800040344034403440347F3402340C3402343F
:100290007F347F340434083410347F343E344134A6
:1002A000413441343E340A148A100A115A3E03186C
:1002B0008A0A82007F3409340934093406343E3412
:1002C0004134513421345E347F34093419342934B3
:1002D00046344634493449344934313401340134E4
:1002E0007F34013401343F344034403440343F34AF
:1002F0001F342034403420341F343F3440343834E9
:1003000040343F34633414340834143463340734D1
:100310000834703408340734613451344934453476
:10032000433400347F3441344134003402340434E3
:100330000834103420340034413441347F340034E4
:100340000434023401340234043440344034403440
:100350004034403400340134023404340034203456
:1003600054345434543478347F344834443444342A
:100370003834383444344434443420343834443405
:10038000443448347F343834543454345434183476
:1003900008347E340934013402340C34523452347B
:1003A00052343E347F340834043404347834003416
:1003B00044347D34403400342034403444343D34BB
:1003C00000347F3410342834443400340034413451
:1003D0007F34403400347C340434183404347834AA
:1003E0007C340834043404347834383444344434A9
:1003F000443438347C341434143414340834083419
:100400001434143418347C347C3408340434043404
:1004100008344834543454345434203404343F348D
:100420004434403420343C344034403420347C3430
:100430001C342034403420341C343C3440343034B8
:1004400040343C34443428341034283444340C349C
:100450005034503450343C344434643454344C3488
:100460004434003408343634413400340034003429
:100470007F340034003400344134363408340034DE
:100480001034083408341034083478344634413495
:1004900046347834FB0002307A078A007B08533EEA
:1004A00003188A0A8200F034FC340E340334833497
:1004B000C334C3346734FE34F8340F347F347634B5
:1004C000C334C334C134C03460343F341F340C34BB
:1004D000063406340334FF34FF34FF340034003470
:1004E0000034C034C034C034C034FF34FF34FF346F
:1004F000C034C034C0340634063403340334033407
:100500000334C734FE347C340034E034F034F8343F
:10051000DC34CE34C734C334C134C034C0340334C3
:1005200003348334833483348334C334FF347E34DC
:100530003834C034C034C134C134C134C134C1349E
:10054000E3347F343E3400348034E03470343C345F
:100550001E340734FF34FF3400340F340F340D34AD
:100560000C340C340C340C34FF34FF340C34FF34B2
:10057000FF34C334C334C334C334C3348334033487
:100580000334C034C034C034C034C034E0346134C7
:100590007F343F340034FC34FE34CF34C734C334AA
:1005A000C334C334C334833400343F347F34E13440
:1005B000C034C034C034C034E1347F343F340334F9
:1005C00003340334033403348334E334FB343F34DF
:1005D0000F340034C034F03478343E340F340334F4
:1005E0000034003400343C347E34E734C334C33444
:1005F000C334C334E7347E343C343E347F34E33494
:10060000C134C134C134C134E3347F343E34FC34AA
:10061000FE34873403340334033403348734FE3424
:10062000FC340034C134C334C334C334C334E3347E
:1006300073343F341F340034003400340034003449
:10064000003400340034003400340034003400340A
:10065000E034F034F034E03400340034003400345A
:10066000003400343034703470347034003400346A
:1006700000340034003400346034E034E034E034DA
:1006800000340034003400340034003400340034CA
:1006900000340034003400340034003400340034BA
:1006A0000034003400340034003400340034FB00E3
:1006B00003307A078A007B08603E03188A0A8200AA
:1006C000003400340034003400340034003400348A
:1006D000003400340034003400340034003400347A
:1006E000003400340034003400340034003400346A
:1006F000003400340034003400340034003400345A
:100700000034003400340034003400340034003449
:100710000034003400340034003400340034003439
:100720001034C03400340034003400340034003459
:1007300000340034003400344034003400340034D9
:100740000034003400340034003400340034003409
:1007500000340034003400340034003400340034F9
:1007600000340034003400340034003400340034E9
:1007700000340034003400340034003400340034D9
:1007800000340034003400340034003400340034C9
:1007900000340034003400340034003400340034B9
:1007A0000034803480348034003440344034803429
:1007B0008034803408340034103420342034403401
:1007C000003400348034C034603421343434103484
:1007D0001034103410342034203440348634013442
:1007E00000340034003400340034803480348034E9
:1007F0000034003400340034003400340034003459
:100800000034003400340034003400340034003448
:100810000034003400340034003400340034003438
:100820000034003400340034003400340034003428
:100830000034003400340034003400340034003418
:10084000F034083406340234013400340034003407
:1008500000340034003400340034003401340134F6
:10086000023404341834083408340E340934103493
:100870001034103420346034C03400340034003478
:10088000003400340034E7341834003401340134C7
:1008900001340034003400340034003400340034B7
:1008A00000340034003400340034003400340034A8
:1008B0000034003400340034003400340034003498
:1008C0000034003400340034003400340034003488
:1008D0000034003400348034603418340C34043470
:1008E0000234023401340134013400340034003461
:1008F0000034003400340034003400340034003458
:100900000034003400340034003400340034003447
:100910000034003400340034003400340034003437
:10092000003401340134013401340134013402341F
:10093000023404340D341034623480340434083406
:100940000034003400340034003400340034003407
:1009500000340034003400340034003400340034F7
:1009600000340034003400340034003400340034E7
:1009700000340034003400340034003400343F3498
:10098000E034803400340034003400340034003467
:1009900000340034003400340034003400340034B7
:1009A00000340034003400340034003400340034A7
:1009B0000034003400340034003400340034003497
:1009C0000034003400340034003400340034003487
:1009D00000340034003400340034003400348034F7
:1009E00060341F34003400340034003400340034E8
:1009F0000034003400340034003400340034003457
:100A00000034003400340034003400340034003446
:100A10000034003400340034003400340034003436
:100A2000003400340034003400340134033406341C
:100A300004340434083408340834083408340834DE
:100A400008340834083408340834083408340834C6
:100A500008340834083408340834083408340834B6
:100A600008340834083408340834083408340834A6
:100A7000083408340834083408340834083404349A
:100A800004340234033401340034003400340034BC
:100A900000340034003400340034003400340034B6
:100AA00000340034003400340034003400340034A6
:100AB0000830FC00FC080319832DB311330883169A
:100AC0008700831287110230F700F70B652D682D20
:100AD0000000F61B6D2D87126E2D8716B31233089A
:100AE000831687008312B31133088316870083129D
:100AF00087150230F700F70B7B2D7E2D00000310C9
:100B0000F60DFC035A2D08008316881183128811F4
:100B100083168512831285120230F700F70B8E2D93
:100B2000912D00007508F600582583168512831252
:100B300085160230F700F70B9B2D9E2D0000080054
:100B4000730807394038F400F500842572087F39AE
:100B50008038F400F500842508008316881183127C
:100B6000881583168512831285120230F700F70B61
:100B7000B72DBA2D00007208F6005825831685128D
:100B8000831285160230F700F70BC42DC72D000025
:100B90000800F201F301A0250130B200F830B100E5
:100BA000B108031DD62DB2080319DD2DF201AD25C4
:100BB00031080319B203B103D02D08008C1EDE2DBD
:100BC0001A08D2005208233C031DE82D5414212E8C
:100BD000541C212E4708D3005508F63E03181A2E40
:100BE0000A3E252E5208C800D50A1A2E5208C900FE
:100BF000D50A1A2E5208CA00D50A1A2E5208CB005E
:100C0000D50A1A2E5208CE00D50A1A2E5208CF0045
:100C1000D50A1A2E5208CC00D50A1A2E5208CD0039
:100C2000D50A1A2E5208D000D50A1A2E5208D10021
:100C3000D5015410470853020319212EC92547082E
:100C4000D3008C128A110A1233280A108A140A154A
:100C50008207F22DF62DFA2DFE2D022E062E0A2EDB
:100C60000E2E122E162EC408031D4F2E0130C40066
:100C7000831608168312C601081AC60A8316881638
:100C80008312C501881AC50A8E018F018E01C5081D
:100C9000031DC70A4708033C031CC7016A2E0F083F
:100CA000FA000E08F7000F087A02031D4F2E77088E
:100CB000F2007A08F3007308173C03186A2EFF3A13
:100CC000031D662E72086A3C03186A2EC4018E0149
:100CD0008F018E018B108A110A123328311BAF1835
:100CE000B2173218B11C00004E34E9327410E437E8
:100CF0003A10000120004300C437A0306D1D2000D1
:100D0000A01200014139EC306D10613A3A008316AF
:100D100003170908C039890003131F129F120030FE
:100D200003178800831203131F10940183160317FF
:100D300087152A300313990000309A00A6309800D6
:100D400090308312980083168C16C03083128B0467
:100D50000B16831601131530831290008101831640
:100D60008811831288158316851283128516C83060
:100D7000E3000330E302031CC72E633084008313B7
:100D800000080319C72EC52EC52E800BC42E83164E
:100D90000811831208113230E3006330840083139A
:100DA00000080319E02E0630F800F701F70BD62EE5
:100DB000F80BD52E7B30F700F70BDC2E800BD32EF3
:100DC0008316081183120815AC018B1BAC178B130B
:100DD0002130F5008425AC1B8B17AC018B1BAC17A5
:100DE0008B13C830F5008425AC1B8B17AC018B1B13
:100DF000AC178B131230F5008425AC1B8B17AC019C
:100E00008B1BAC178B132030F5008425AC1B8B1784
:100E1000AC018B1BAC178B130930F5008425AC1B80
:100E20008B173230E300633084008313000803190A
:100E3000262F0630F800F701F70B1C2FF80B1B2F9D
:100E40007B30F700F70B222F800B192FAC018B1B87
:100E5000AC178B13C925AC1B8B170A30E30063302A
:100E60008400831300080319422F0630F800F701AD
:100E7000F70B382FF80B372F7B30F700F70B3E2F8F
:100E8000800B352FAC018B1BAC178B130830F50092
:100E90008425AC1B8B170A30E30063308400831376
:100EA00000080319602F0630F800F701F70B562FE2
:100EB000F80B552F7B30F700F70B5C2F800B532F6F
:100EC000AC018B1BAC178B130C30F5008425AC1BCD
:100ED0008B178A150A1255298316881083128814D5
:100EE00083160512831205163230E3006330840046
:100EF000831300080319892F0630F800F701F70B58
:100F00007F2FF80B7E2F7B30F700F70B852F800BA0
:100F10007C2F831605128312051283168810831204
:100F2000881008000B08E3008B13831603178C1737
:100F30000C140000000083120313E31B8B1703172C
:100F40000C087F390319EA2F0313E30003170D0878
:100F50000313E40003170F080313E5006308E6001A
:100F60008A1500208A11640803178D000313650891
:100F700003178F0003130B08E6008B138316031768
:100F80008C170C140000000083120313E61B8B1750
:100F900003170C0D0E0D7F390319EA2F0313E3001D
:100FA00003170D080313E40003170F080313E500EC
:100FB0006308E6008A1500208A11640803178D0073
:100FC0000313650803178F008D0A03198F0A031393
:080FD000922F03170313080020
:101000006608AE002E081F3C031896282E087F3C69
:10101000031C9628AD012D08043C031C8C282E08C7
:101020004F3C031C47282E08E03EE8006808EC000F
:101030000530ED00F701F8016C0803106D18F70793
:10104000F70CF80CED18F707F70CF80C6D19F7070B
:10105000F70CF80CED19F707F70CF80C6D1AF707F9
:10106000F70CF80CED1AF707F70CF80C6D1BF707E7
:10107000F70CF80CED1BF707F70CF80C7808AF002D
:101080002D082F078A115C208A15F800B0002E0861
:101090004F3C03187F282E08B03EE8006808EC009B
:1010A0000530ED00F701F8016C0803106D18F70723
:1010B000F70CF80CED18F707F70CF80C6D19F7079B
:1010C000F70CF80CED19F707F70CF80C6D1AF70789
:1010D000F70CF80CED1AF707F70CF80C6D1BF70777
:1010E000F70CF80CED1BF707F70CF80C7808AF00BD
:1010F0002D082F078A1153218A15F800B000AC0182
:101100008B1BAC178B133008F2008A11AD258A15A2
:10111000AC1B8B17AD0A0B28AC018B1BAC178B13C8
:10112000F2018A11AD258A15AC1B8B170800E90165
:101130006908013C031C2B2969086707EB00AC0117
:101140008B1BAC178B136608F2006B08F3008A1137
:10115000A0258A15AC1B8B17EA016A08093C031C01
:1011600029296508EC001430ED00F701F8016C083E
:1011700003106D18F707F70CF80CED18F707F70CCC
:10118000F80C6D19F707F70CF80CED19F707F70CC9
:10119000F80C6D1AF707F70CF80CED1AF707F70CB7
:1011A000F80C6D1BF707F70CF80CED1BF707F70CA5
:1011B000F80C7808EB000A30EC006908ED00F70144
:1011C000F8016C0803106D18F707F70CF80CED1810
:1011D000F707F70CF80C6D19F707F70CF80CED1979
:1011E000F707F70CF80C6D1AF707F70CF80CED1A67
:1011F000F707F70CF80C6D1BF707F70CF80CED1B55
:10120000F707F70CF80C78086B076A07E800650821
:101210000C3C031D1629AC018B1BAC178B13F20180
:101220008A11AD258A15AC1B8B172729FA0168088E
:101230008A114A228A15EB00AC018B1BAC178B1369
:101240006B08F2008A11AD258A15AC1B8B17EA0AD0
:10125000AD28E90A9828080003081F39830083167F
:101260000317871508300313990002309A00A6303F
:101270009800903083129800FF30B300C401C7017A
:101280005410D501831603170908C03989000313C8
:101290001F129F12003003178800831287018801F4
:1012A000890183138A110313872E8A150430D8000D
:1012B0000230D9008A116C278A1547085302031996
:1012C0006C29AC018B1BAC178B138A11C9258A15AD
:1012D000AC1B8B174708D300C708031DCF2947084D
:1012E000530203197E29AC018B1BAC178B138A1197
:1012F000C9258A15AC1B8B174708D300AC018B1B83
:10130000AC178B13F201F3018A11A0258A15AC1BCF
:101310008B176E3003178D0006308F008A11031370
:1013200092278A1530304802E300E5005808E600AD
:101330005908E700972030304902E3000C30580785
:10134000E4006308E5006408E6005908E700972018
:1013500018305807E3000B30E5006308E600590831
:10136000E700972030304A02E30024305807E400B9
:101370006308E5006408E6005908E700972030306C
:101380004B02E30030305807E4006308E5006408CE
:10139000E6005908E70097204708D300D70A470B13
:1013A0006F2A470853020319E029AC018B1BAC17C5
:1013B0008B138A11C9258A15AC1B8B174708D300DC
:1013C000AC018B1BAC178B130430F2000130F3001F
:1013D0008A11A0258A15AC1B8B17743003178D005A
:1013E00006308F008A11031392278A15AC018B1BDC
:1013F000AC178B130530F2000230F3008A11A025E0
:101400008A15AC1B8B174C08E60000204D08E6003F
:1014100000207A3003178D0006308F008A110313E5
:1014200092278A15AC018B1BAC178B130330F2008B
:101430008A11AD258A15AC1B8B17AC018B1BAC1721
:101440008B130330F2008A11AD258A15AC1B8B1764
:10145000AC018B1BAC178B13F2018A11AD258A15D9
:10146000AC1B8B177B3003178D0006308F008A1161
:10147000031392278A15AC018B1BAC178B13043016
:10148000F2000330F3008A11A0258A15AC1B8B17DC
:101490007C3003178D0006308F008A1103139227CA
:1014A0008A15AC018B1BAC178B130530F20004308E
:1014B000F3008A11A0258A15AC1B8B175008E60093
:1014C00000205108E6000020803003178D00063010
:1014D0008F008A11031392278A154708D300470803
:1014E000023C031DAF2A470853020319822AAC01AC
:1014F0008B1BAC178B138A11C9258A15AC1B8B1754
:101500004708D300AC018B1BAC178B13F201F3011E
:101510008A11A0258A15AC1B8B17DB01DA015B0849
:10152000013C031CAF2A031D992A5A08F83C031CEE
:10153000AF2A5B08FA005A088A1157238A15E3007C
:10154000AC018B1BAC178B136308F2008A11AD251D
:101550008A15AC1B8B17DA0A0319DB0A8F2A470896
:10156000033C031D352B470853020319C22AAC0163
:101570008B1BAC178B138A11C9258A15AC1B8B17D3
:101580004708D3000430DC000230DD000130DE000B
:101590000230DF000130E0000430E1004630E200BC
:1015A0006208463C0319D82A8316051283120516D1
:1015B000AC018B1BAC178B130130F200F3018A11C5
:1015C000A0258A15AC1B8B17823003178D000630BF
:1015D0008F008A11031392278A155E08E5005C08C4
:1015E000E6005D08E70097200C305C07E3005F0829
:1015F000E5006308E6005D08E700972018305C0707
:10160000E3000B30E5006308E6005D08E700972083
:1016100024305C07E3006008E5006308E6005D082D
:10162000E700972030305C07E3006108E5006308BD
:10163000E6005D08E7009720303048025E02031D97
:10164000332B303049025F02031D332B30304A0206
:101650006002031D332B30304B026102031D332B1C
:0E1660008A116C278A154708D3005D296300A4
:04400E00E22CFF3F62
:00000001FF
;PIC16F887
;CRC=B99C  CREATED="16-Dec-19 22:23"
