:1000000008308A0000280000FF00030E8301A100D1
:100010000A08A0008A010408A2007708A300780853
:10002000A4007908A5007A08A6007B08A70003179A
:100030000D080313A80003170F080313A9000317E3
:100040000C080313AA0003170E080313AB00831355
:1000500083120B1E2D288B1856288C308400801E8E
:1000600033288C1A5928220884002308F700240812
:10007000F8002508F9002608FA002708FB002808E0
:1000800003178D000313290803178F0003132A0891
:1000900003178C0003132B0803178E00031320088B
:1000A0008A00210E8300FF0E7F0E09008A110A12BA
:1000B000492E8A110A12FA2D0A108A100A11633E7B
:1000C00003188A0A820000340034003400340034FB
:1000D000003400345F34003400340034073400341A
:1000E0000734003414347F3414347F34143424340B
:1000F0002A347F342A3412342334133408346434D9
:1001000062343634493455342234503400340534A2
:1001100003340034003400341C34223441340034BD
:100120000034413422341C340034143408343E3456
:1001300008341434083408343E34083408340034A5
:10014000503430340034003408340834083408346F
:100150000834003460346034003400342034103407
:100160000834043402343E345134493445343E3486
:10017000003442347F3440340034423461345134EA
:10018000493446342134413445344B343134183405
:10019000143412347F341034273445344534453414
:1001A00039343C344A3449344934303401347134BC
:1001B0000934053403343634493449344934363447
:1001C00006344934493429341E3400343634363444
:1001D00000340034003456343634003400340834EB
:1001E00014342234413400341434143414341434A8
:1001F00014340034413422341434083402340134C9
:1002000051340934063432344934793441343E347B
:100210007E341134113411347E347F3449344934FE
:10022000493436343E3441344134413422347F340D
:100230004134413422341C347F3449344934493404
:1002400041347F3409340934093401343E344134B3
:10025000493449347A347F340834083408347F34DC
:10026000003441347F34413400342034403441344C
:100270003F3401347F3408341434223441347F3421
:1002800040344034403440347F3402340C3402343F
:100290007F347F340434083410347F343E344134A6
:1002A000413441343E340A148A100A115A3E03186C
:1002B0008A0A82007F3409340934093406343E3412
:1002C0004134513421345E347F34093419342934B3
:1002D00046344634493449344934313401340134E4
:1002E0007F34013401343F344034403440343F34AF
:1002F0001F342034403420341F343F3440343834E9
:1003000040343F34633414340834143463340734D1
:100310000834703408340734613451344934453476
:10032000433400347F3441344134003402340434E3
:100330000834103420340034413441347F340034E4
:100340000434023401340234043440344034403440
:100350004034403400340134023404340034203456
:1003600054345434543478347F344834443444342A
:100370003834383444344434443420343834443405
:10038000443448347F343834543454345434183476
:1003900008347E340934013402340C34523452347B
:1003A00052343E347F340834043404347834003416
:1003B00044347D34403400342034403444343D34BB
:1003C00000347F3410342834443400340034413451
:1003D0007F34403400347C340434183404347834AA
:1003E0007C340834043404347834383444344434A9
:1003F000443438347C341434143414340834083419
:100400001434143418347C347C3408340434043404
:1004100008344834543454345434203404343F348D
:100420004434403420343C344034403420347C3430
:100430001C342034403420341C343C3440343034B8
:1004400040343C34443428341034283444340C349C
:100450005034503450343C344434643454344C3488
:100460004434003408343634413400340034003429
:100470007F340034003400344134363408340034DE
:100480001034083408341034083478344634413495
:1004900046347834FB0002307A078A007B08533EEA
:1004A00003188A0A8200F034FC340E340334833497
:1004B000C334C3346734FE34F8340F347F347634B5
:1004C000C334C334C134C03460343F341F340C34BB
:1004D000063406340334FF34FF34FF340034003470
:1004E0000034C034C034C034C034FF34FF34FF346F
:1004F000C034C034C0340634063403340334033407
:100500000334C734FE347C340034E034F034F8343F
:10051000DC34CE34C734C334C134C034C0340334C3
:1005200003348334833483348334C334FF347E34DC
:100530003834C034C034C134C134C134C134C1349E
:10054000E3347F343E3400348034E03470343C345F
:100550001E340734FF34FF3400340F340F340D34AD
:100560000C340C340C340C34FF34FF340C34FF34B2
:10057000FF34C334C334C334C334C3348334033487
:100580000334C034C034C034C034C034E0346134C7
:100590007F343F340034FC34FE34CF34C734C334AA
:1005A000C334C334C334833400343F347F34E13440
:1005B000C034C034C034C034E1347F343F340334F9
:1005C00003340334033403348334E334FB343F34DF
:1005D0000F340034C034F03478343E340F340334F4
:1005E0000034003400343C347E34E734C334C33444
:1005F000C334C334E7347E343C343E347F34E33494
:10060000C134C134C134C134E3347F343E34FC34AA
:10061000FE34873403340334033403348734FE3424
:10062000FC340034C134C334C334C334C334E3347E
:1006300073343F341F340034003400340034003449
:10064000003400340034003400340034003400340A
:10065000E034F034F034E03400340034003400345A
:10066000003400343034703470347034003400346A
:1006700000340034003400346034E034E034E034DA
:1006800000340034003400340034003400340034CA
:1006900000340034003400340034003400340034BA
:1006A0000034003400340034003400340034FB00E3
:1006B00003307A078A007B08603E03188A0A8200AA
:1006C000003400340034003400340034003400348A
:1006D000003400340034003400340034003400347A
:1006E000003400340034003400340034003400346A
:1006F000003400340034003400340034003400345A
:100700000034003400340034003400340034003449
:100710000034003400340034003400340034003439
:100720001034C03400340034003400340034003459
:1007300000340034003400344034003400340034D9
:100740000034003400340034003400340034003409
:1007500000340034003400340034003400340034F9
:1007600000340034003400340034003400340034E9
:1007700000340034003400340034003400340034D9
:1007800000340034003400340034003400340034C9
:1007900000340034003400340034003400340034B9
:1007A0000034803480348034003440344034803429
:1007B0008034803408340034103420342034403401
:1007C000003400348034C034603421343434103484
:1007D0001034103410342034203440348634013442
:1007E00000340034003400340034803480348034E9
:1007F0000034003400340034003400340034003459
:100800000034003400340034003400340034003448
:100810000034003400340034003400340034003438
:100820000034003400340034003400340034003428
:100830000034003400340034003400340034003418
:10084000F034083406340234013400340034003407
:1008500000340034003400340034003401340134F6
:10086000023404341834083408340E340934103493
:100870001034103420346034C03400340034003478
:10088000003400340034E7341834003401340134C7
:1008900001340034003400340034003400340034B7
:1008A00000340034003400340034003400340034A8
:1008B0000034003400340034003400340034003498
:1008C0000034003400340034003400340034003488
:1008D0000034003400348034603418340C34043470
:1008E0000234023401340134013400340034003461
:1008F0000034003400340034003400340034003458
:100900000034003400340034003400340034003447
:100910000034003400340034003400340034003437
:10092000003401340134013401340134013402341F
:10093000023404340D341034623480340434083406
:100940000034003400340034003400340034003407
:1009500000340034003400340034003400340034F7
:1009600000340034003400340034003400340034E7
:1009700000340034003400340034003400343F3498
:10098000E034803400340034003400340034003467
:1009900000340034003400340034003400340034B7
:1009A00000340034003400340034003400340034A7
:1009B0000034003400340034003400340034003497
:1009C0000034003400340034003400340034003487
:1009D00000340034003400340034003400348034F7
:1009E00060341F34003400340034003400340034E8
:1009F0000034003400340034003400340034003457
:100A00000034003400340034003400340034003446
:100A10000034003400340034003400340034003436
:100A2000003400340034003400340134033406341C
:100A300004340434083408340834083408340834DE
:100A400008340834083408340834083408340834C6
:100A500008340834083408340834083408340834B6
:100A600008340834083408340834083408340834A6
:100A7000083408340834083408340834083404349A
:100A800004340234033401340034003400340034BC
:100A900000340034003400340034003400340034B6
:100AA00000340034003400340034003400340034A6
:100AB000F701F801760803107C18F707F70CF80C1B
:100AC000FC18F707F70CF80C7C19F707F70CF80C73
:100AD000FC19F707F70CF80C7C1AF707F70CF80C61
:100AE000FC1AF707F70CF80C7C1BF707F70CF80C4F
:100AF000FC1BF707F70CF80C08000830F600F608A6
:100B00000319A42DB31133088316870083128711AC
:100B10000330F700F70B8A2DF51B902D8712912DCE
:100B20008716B3123308831687008312B311330874
:100B300083168700831287150330F700F70B9E2D6D
:100B40000310F50DF6037F2D08008316881183121C
:100B5000881583168512831285120330F700F70B70
:100B6000AF2D7408F5007D25831685128312851636
:100B70000330F700F70BBA2D08002E081F3C0318AE
:100B8000F52D2E087F3C031CF52DAD012D08043CEE
:100B9000031CF32D2E084F3C031CDC2D2E08E03ED9
:100BA000F500F6000530FC0058257808AF002D0848
:100BB0002F075C20F800B0002E084F3C0318EE2DE4
:100BC0002E08B03EF500F6000530FC0058257808E8
:100BD000AF002D082F075321F800B0003008F400B3
:100BE000A525AD0AC62DF401A52508007308AE00A1
:100BF000BD2508008C1EFA2D1A08CE004E08F30001
:100C0000F6254E08233C031D072E4F14372E4F1C8C
:100C1000372E5008F63E0318372E0A3E3B2E4E085C
:100C2000C400D00A372E4E08C500D00A372E4E0811
:100C3000C600D00A372E4E08C700D00A372E4E08FD
:100C4000CA00D00A372E4E08CB00D00A372E4E08E5
:100C5000C800D00A372E4E08C900D00A372E4E08D9
:100C6000CC00D00A372E4E08CD00D0014F108C1288
:100C70008A110A1233280A108A140A1582070F2EC5
:100C8000132E172E1B2E1F2E232E272E2B2E2F2EEC
:100C9000332ED108031D652E0130D10083160816AE
:100CA0008312D301081AD30A831688168312D2013D
:100CB000881AD20A8E018F018E01D208031DD40A30
:100CC0005408033C031CD401802E0F08FA000E08C0
:100CD000F7000F087A02031D652E7708F3007A08E3
:100CE000F4007408173C0318802EFF3A031D7C2E75
:100CF00073086A3C0318802ED1018E018F018E018A
:100D00008B108A110A123328311BAF18B217321810
:100D1000B11C00004E34E9327410E4373A1000017F
:100D2000C437A0306D1D2000F33A6E377900413989
:100D3000EC306D10613A3A0065308400831300088E
:100D40000319AF2E0630F800F701F70BA52EF80BAC
:100D5000A42E7B30F700F70BAB2E800BA22E0800E1
:100D600083168811831288118316851283128512C7
:100D70000330F700F70BBA2EAC018B1BAC178B13AB
:100D80007008F5007D25AC1B8B1783168512831226
:100D900085160330F700F70BCB2E08006E080739D5
:100DA0004038EF00F000B0266D087F398038EF0042
:100DB000F000B0260800ED01EE01CE260130B200B1
:100DC000F830B100B108031DE82EB2080319F52E62
:100DD000AC018B1BAC178B13F401A525AC1B8B1737
:100DE00031080319B203B103E22E08000B08E40036
:100DF0008B13831603178C170C140000000083124A
:100E00000313E41B8B1703170C087F390319562FA4
:100E10000313E40003170D080313E50003170F087D
:100E20000313E600AC018B1BAC178B136408F300B3
:100E3000F625AC1B8B17650803178D000313660896
:100E400003178F0003130B08E7008B138316031798
:100E50008C170C140000000083120313E71B8B1780
:100E600003170C0D0E0D7F390319562F0313E400E1
:100E700003170D080313E50003170F080313E6001B
:100E8000AC018B1BAC178B136408F300F625AC1B6D
:100E90008B17650803178D000313660803178F006F
:100EA0008D0A03198F0A0313F62E03170313080084
:100EB000EA016A08013C031CA42F6A086807EC00D9
:100EC0006708ED006C08EE00CE26EB016B08093CCC
:100ED000031CA22FAC018B1BAC178B136608F6000A
:100EE0001430FC005825AC1B8B177808EC00AC01C3
:100EF0008B1BAC178B130A30F6006A08FC005825D0
:100F0000AC1B8B1778086C076B07E90066080C3C74
:100F1000031D932FAC018B1BAC178B13F401A5257C
:100F2000AC1B8B17A02FFA0169084A22EC00AC0118
:100F30008B1BAC178B136C08F400A525AC1B8B170F
:100F4000EB0A662FEA0A592F0800831688108312CD
:100F500088146430E5009C2683168810831288105C
:060F60008A150A12302A76
:1010000003081F398300831603178715083003135D
:10101000990002309A00A630980090308312980010
:10102000FF30B3004F10D001D101D401D601D5015A
:10103000831603170908C039890003131F129F1272
:101040000030031788008312870188018901831308
:1010500083160908C039890003131F129F1200303C
:1010600003178800831203131F10940183160317BC
:1010700087152A300313990000309A00A630980093
:1010800090308312980083168C16C03083128B0424
:101090000B168316011315308312900081018316FD
:1010A0008811831288158316851283128516C8301D
:1010B000E4000330E402031C6728643084008313D7
:1010C00000080319672865286528800B64288316A3
:1010D0000811831208113230E5008A119C268A1506
:1010E00083160811831208152130F0008A11B026EA
:1010F0008A15C830F0008A11B0268A151230F00027
:101100008A11B0268A152030F0008A11B0268A157F
:101110000930F0008A11B0268A153230E5008A11B4
:101120009C268A158A11DB268A150A30E5008A1169
:101130009C268A150830F0008A11B0268A150A30DC
:10114000E5008A119C268A150C30F0008A11B02621
:101150008A150430DA000230DB0054085702031904
:10116000B6288A11DB268A155408D700D408031D37
:1011700024298A11DB268A15ED01EE018A11CE267B
:101180008A15843003178D0006308F008A110313EF
:10119000F6268A1530304402E400E6005A08E700DB
:1011A0005B08E8008A1158278A1530304502E400B0
:1011B0000C305A07E5006408E6006508E7005B08A4
:1011C000E8008A1158278A1559080A3C031DFA2895
:1011D00018305A07E4000B30E6006408E7005B08AB
:1011E000E8008A1158278A15D9016430E5008A1170
:1011F0009C268A1530304602E40024305A07E50068
:101200006408E6006508E7005B08E8008A115827D3
:101210008A1530304702E40030305A07E500640890
:10122000E6006508E7005B08E8008A1158278A1580
:101230005408D700D90A0230E4009630E5008A113C
:101240009C268A15E40B1D29540B79298A11DB266B
:101250008A150430ED000230EE008A11CE268A1580
:101260008A3003178D0006308F008A110313F6268B
:101270008A15AC018B1BAC178B134808F3008A113D
:10128000F6258A15AC1B8B17AC018B1BAC178B1387
:101290004908F3008A11F6258A15AC1B8B17043018
:1012A000ED00EE008A11CE268A15903003178D00CE
:1012B00006308F008A110313F6268A15AC018B1BAA
:1012C000AC178B134C08F3008A11F6258A15AC1B5A
:1012D0008B17AC018B1BAC178B134D08F3008A11D5
:1012E000F6258A15AC1B8B17C830E5008A119C26A1
:1012F0008A155408023C031DBF298A11DB268A1572
:10130000ED01EE018A11CE268A15DD01DC015D08B2
:10131000013C031CA729031D91295C08F83C031C10
:10132000A7295D08FA005C088A1157238A15E40092
:10133000AC018B1BAC178B136408F4008A11A52534
:101340008A15AC1B8B17DC0A0319DD0A87290130CB
:10135000ED00EE018A11CE268A15943003178D0018
:1013600006308F008A110313F6268A150230E40036
:10137000FA30E5008A119C268A15E40BB829540836
:10138000033C031D3C2A0430DE000230DF00013044
:10139000E0000230E1000130E2000430E3008A1195
:1013A000DB268A150130ED00EE018A11CE268A1562
:1013B000973003178D0006308F008A110313F6262D
:1013C0008A156008E6005E08E7005F08E8008A11F9
:1013D00058278A150C305E07E4006108E6006408AF
:1013E000E7005F08E8008A1158278A1518305E0761
:1013F000E4000B30E6006408E7005F08E8008A11AB
:1014000058278A1524305E07E4006208E600640865
:10141000E7005F08E8008A1158278A1530305E0718
:10142000E4006308E6006408E7005F08E8008A114A
:1014300058278A15303044026002031D312A3030AB
:1014400045026102031D312A303046026202031D4B
:10145000312A303047026302031D312A8A11A52F39
:101460008A155408D7000230E400FA30E5008A11EA
:0C1470009C268A15E40B352AAD28630089
:04400E00E22C000799
:00000001FF
;PIC16F887
;CRC=4388  CREATED="16-Dec-19 12:10"
