:1000000008308A0053280000FF00030E8301A1007E
:100010000A08A0008A010408A2007708A300780853
:10002000A4007908A5007A08A6007B08A70003179A
:100030000D080313A80003170F080313A9000317E3
:100040000C080313AA0003170E080313AB00831355
:1000500083120B1E2D288B1856288C308400801E8E
:1000600033288C1A5928220884002308F700240812
:10007000F8002508F9002608FA002708FB002808E0
:1000800003178D000313290803178F0003132A0891
:1000900003178C0003132B0803178E00031320088B
:1000A0008A00210E8300FF0E7F0E09008A110A12BA
:1000B000272E8A110A12D22D0A108A100A11633EC5
:1000C00003188A0A820000340034003400340034FB
:1000D000003400345F34003400340034073400341A
:1000E0000734003414347F3414347F34143424340B
:1000F0002A347F342A3412342334133408346434D9
:1001000062343634493455342234503400340534A2
:1001100003340034003400341C34223441340034BD
:100120000034413422341C340034143408343E3456
:1001300008341434083408343E34083408340034A5
:10014000503430340034003408340834083408346F
:100150000834003460346034003400342034103407
:100160000834043402343E345134493445343E3486
:10017000003442347F3440340034423461345134EA
:10018000493446342134413445344B343134183405
:10019000143412347F341034273445344534453414
:1001A00039343C344A3449344934303401347134BC
:1001B0000934053403343634493449344934363447
:1001C00006344934493429341E3400343634363444
:1001D00000340034003456343634003400340834EB
:1001E00014342234413400341434143414341434A8
:1001F00014340034413422341434083402340134C9
:1002000051340934063432344934793441343E347B
:100210007E341134113411347E347F3449344934FE
:10022000493436343E3441344134413422347F340D
:100230004134413422341C347F3449344934493404
:1002400041347F3409340934093401343E344134B3
:10025000493449347A347F340834083408347F34DC
:10026000003441347F34413400342034403441344C
:100270003F3401347F3408341434223441347F3421
:1002800040344034403440347F3402340C3402343F
:100290007F347F340434083410347F343E344134A6
:1002A000413441343E340A148A100A115A3E03186C
:1002B0008A0A82007F3409340934093406343E3412
:1002C0004134513421345E347F34093419342934B3
:1002D00046344634493449344934313401340134E4
:1002E0007F34013401343F344034403440343F34AF
:1002F0001F342034403420341F343F3440343834E9
:1003000040343F34633414340834143463340734D1
:100310000834703408340734613451344934453476
:10032000433400347F3441344134003402340434E3
:100330000834103420340034413441347F340034E4
:100340000434023401340234043440344034403440
:100350004034403400340134023404340034203456
:1003600054345434543478347F344834443444342A
:100370003834383444344434443420343834443405
:10038000443448347F343834543454345434183476
:1003900008347E340934013402340C34523452347B
:1003A00052343E347F340834043404347834003416
:1003B00044347D34403400342034403444343D34BB
:1003C00000347F3410342834443400340034413451
:1003D0007F34403400347C340434183404347834AA
:1003E0007C340834043404347834383444344434A9
:1003F000443438347C341434143414340834083419
:100400001434143418347C347C3408340434043404
:1004100008344834543454345434203404343F348D
:100420004434403420343C344034403420347C3430
:100430001C342034403420341C343C3440343034B8
:1004400040343C34443428341034283444340C349C
:100450005034503450343C344434643454344C3488
:100460004434003408343634413400340034003429
:100470007F340034003400344134363408340034DE
:100480001034083408341034083478344634413495
:1004900046347834FB0002307A078A007B08533EEA
:1004A00003188A0A8200F034FC340E340334833497
:1004B000C334C3346734FE34F8340F347F347634B5
:1004C000C334C334C134C03460343F341F340C34BB
:1004D000063406340334FF34FF34FF340034003470
:1004E0000034C034C034C034C034FF34FF34FF346F
:1004F000C034C034C0340634063403340334033407
:100500000334C734FE347C340034E034F034F8343F
:10051000DC34CE34C734C334C134C034C0340334C3
:1005200003348334833483348334C334FF347E34DC
:100530003834C034C034C134C134C134C134C1349E
:10054000E3347F343E3400348034E03470343C345F
:100550001E340734FF34FF3400340F340F340D34AD
:100560000C340C340C340C34FF34FF340C34FF34B2
:10057000FF34C334C334C334C334C3348334033487
:100580000334C034C034C034C034C034E0346134C7
:100590007F343F340034FC34FE34CF34C734C334AA
:1005A000C334C334C334833400343F347F34E13440
:1005B000C034C034C034C034E1347F343F340334F9
:1005C00003340334033403348334E334FB343F34DF
:1005D0000F340034C034F03478343E340F340334F4
:1005E0000034003400343C347E34E734C334C33444
:1005F000C334C334E7347E343C343E347F34E33494
:10060000C134C134C134C134E3347F343E34FC34AA
:10061000FE34873403340334033403348734FE3424
:10062000FC340034C134C334C334C334C334E3347E
:1006300073343F341F340034003400340034003449
:10064000003400340034003400340034003400340A
:10065000E034F034F034E03400340034003400345A
:10066000003400343034703470347034003400346A
:1006700000340034003400346034E034E034E034DA
:1006800000340034003400340034003400340034CA
:1006900000340034003400340034003400340034BA
:1006A0000034003400340034003400340034FB00E3
:1006B00003307A078A007B08603E03188A0A8200AA
:1006C000003400340034003400340034003400348A
:1006D000003400340034003400340034003400347A
:1006E000003400340034003400340034003400346A
:1006F000003400340034003400340034003400345A
:100700000034003400340034003400340034003449
:100710000034003400340034003400340034003439
:100720001034C03400340034003400340034003459
:1007300000340034003400344034003400340034D9
:100740000034003400340034003400340034003409
:1007500000340034003400340034003400340034F9
:1007600000340034003400340034003400340034E9
:1007700000340034003400340034003400340034D9
:1007800000340034003400340034003400340034C9
:1007900000340034003400340034003400340034B9
:1007A0000034803480348034003440344034803429
:1007B0008034803408340034103420342034403401
:1007C000003400348034C034603421343434103484
:1007D0001034103410342034203440348634013442
:1007E00000340034003400340034803480348034E9
:1007F0000034003400340034003400340034003459
:100800000034003400340034003400340034003448
:100810000034003400340034003400340034003438
:100820000034003400340034003400340034003428
:100830000034003400340034003400340034003418
:10084000F034083406340234013400340034003407
:1008500000340034003400340034003401340134F6
:10086000023404341834083408340E340934103493
:100870001034103420346034C03400340034003478
:10088000003400340034E7341834003401340134C7
:1008900001340034003400340034003400340034B7
:1008A00000340034003400340034003400340034A8
:1008B0000034003400340034003400340034003498
:1008C0000034003400340034003400340034003488
:1008D0000034003400348034603418340C34043470
:1008E0000234023401340134013400340034003461
:1008F0000034003400340034003400340034003458
:100900000034003400340034003400340034003447
:100910000034003400340034003400340034003437
:10092000003401340134013401340134013402341F
:10093000023404340D341034623480340434083406
:100940000034003400340034003400340034003407
:1009500000340034003400340034003400340034F7
:1009600000340034003400340034003400340034E7
:1009700000340034003400340034003400343F3498
:10098000E034803400340034003400340034003467
:1009900000340034003400340034003400340034B7
:1009A00000340034003400340034003400340034A7
:1009B0000034003400340034003400340034003497
:1009C0000034003400340034003400340034003487
:1009D00000340034003400340034003400348034F7
:1009E00060341F34003400340034003400340034E8
:1009F0000034003400340034003400340034003457
:100A00000034003400340034003400340034003446
:100A10000034003400340034003400340034003436
:100A2000003400340034003400340134033406341C
:100A300004340434083408340834083408340834DE
:100A400008340834083408340834083408340834C6
:100A500008340834083408340834083408340834B6
:100A600008340834083408340834083408340834A6
:100A7000083408340834083408340834083404349A
:100A800004340234033401340034003400340034BC
:100A900000340034003400340034003400340034B6
:100AA00000340034003400340034003400340034A6
:100AB0000830FD00FD0803197F2DB311330883169C
:100AC0008700831287110330F700F70B652DFC1B9D
:100AD0006B2D87126C2D8716B3123308831687008F
:100AE0008312B311330883168700831287150330EE
:100AF000F700F70B792D0310FC0DFD035A2D0800AC
:100B00008316881183128811831685128312851229
:100B10000330F700F70B8A2D7608FC005825831662
:100B20008512831285160330F700F70B952D080008
:100B3000740807394038F500F600802573087F39BE
:100B40008038F500F600802508008316881183128E
:100B5000881583168512831285120330F700F70B70
:100B6000AF2D7308FC005825831685128312851655
:100B70000330F700F70BBA2D0800F301F4019825B4
:100B80000130B200F830B100B108031DCA2DB2081F
:100B90000319D12DF301A52531080319B203B103BF
:100BA000C42D08008C1ED22D1A08D2005208233CF6
:100BB000031DDC2D5414152E541C152E4708D3008C
:100BC0005508F63E03180E2E0A3E192E5208C8008C
:100BD000D50A0E2E5208C900D50A0E2E5208CA0098
:100BE000D50A0E2E5208CB00D50A0E2E5208CE0082
:100BF000D50A0E2E5208CF00D50A0E2E5208CC0070
:100C0000D50A0E2E5208CD00D50A0E2E5208D0005D
:100C1000D50A0E2E5208D100D501541047085302B0
:100C20000319152EBD254708D3008C128A110A120C
:100C300033280A108A140A158207E62DEA2DEE2DB4
:100C4000F22DF62DFA2DFE2D022E062E0A2EC408A8
:100C5000031D432E0130C400831608168312C601FB
:100C6000081AC60A831688168312C501881AC50A8F
:100C70008E018F018E01C508031DC70A4708033C7A
:100C8000031CC7015E2E0F08FA000E08F7000F08BC
:100C90007A02031D432E7708F3007A08F4007408E3
:100CA000173C03185E2EFF3A031D5A2E73086A3C48
:100CB00003185E2EC4018E018F018E018B108A11E4
:100CC0000A123328311BAF18B2173218B11C0000BA
:100CD0004E34E9327410E4373A100001200043002A
:100CE000C437A0306D1D2000A01200014139EC3046
:100CF0006D10613A3A0064308400831300080319D0
:100D00008E2E0630F800F701F70B842EF80B832E99
:100D10007B30F700F70B8A2E800B812E080083169C
:100D200003170908C039890003131F129F120030EE
:100D300003178800831203131F10940183160317EF
:100D400087152A300313990000309A00A6309800C6
:100D500090308312980083168C16C03083128B0457
:100D60000B16831601131530831290008101831630
:100D70008811831288158316851283128516C83050
:100D8000E4000330E402031CCF2E6430840083139C
:100D900000080319CF2ECD2ECD2E800BCC2E83161E
:100DA0000811831208113230E4007B2683160811E3
:100DB00083120815AC018B1BAC178B132130F60086
:100DC0008025AC1B8B17AC018B1BAC178B13C83069
:100DD000F6008025AC1B8B17AC018B1BAC178B135B
:100DE0001230F6008025AC1B8B17AC018B1BAC17A7
:100DF0008B132030F6008025AC1B8B17AC018B1BAE
:100E0000AC178B130930F6008025AC1B8B173230E2
:100E1000E4007B26AC018B1BAC178B13BD25AC1BF0
:100E20008B170A30E4007B26AC018B1BAC178B13AD
:100E30000830F6008025AC1B8B170A30E4007B26B7
:100E4000AC018B1BAC178B130C30F6008025AC1B50
:100E50008B178A150A127E2883168810831288142D
:100E60003230E4007B268316881083128810080035
:100E7000F701F8016D0803106E18F707F70CF80C6E
:100E8000EE18F707F70CF80C6E19F707F70CF80CCB
:100E9000EE19F707F70CF80C6E1AF707F70CF80CB9
:100EA000EE1AF707F70CF80C6E1BF707F70CF80CA7
:100EB000EE1BF707F70CF80C08006708AE002E08C9
:100EC0001F3C0318A32F2E087F3C031CA32FAD014A
:100ED0002D08043C031C9B2F2E084F3C031C7E2F27
:100EE0002E08E03EE900ED000530EE0038277808D6
:100EF000AF002D082F075C20F800B0002E084F3CF3
:100F00000318902F2E08B03EE900ED000530EE00EA
:100F100038277808AF002D082F075321F800B000BC
:100F2000AC018B1BAC178B133008F300A525AC1B51
:100F30008B17AD0A682FAC018B1BAC178B13F30119
:100F4000A525AC1B8B1708000B08E4008B13831638
:100F500003178C170C140000000083120313E41B0A
:100F60008B1703170C087F390319F82F0313E400BC
:100F700003170D080313E50003170F080313E6001A
:100F80006408E7005D27650803178D0003136608F2
:100F900003178F0003130B08E7008B138316031747
:100FA0008C170C140000000083120313E71B8B172F
:100FB00003170C0D0E0D7F390319F82F0313E400EE
:100FC00003170D080313E50003170F080313E600CA
:100FD0006408E7005D27650803178D0003136608A2
:100FE00003178F008D0A03198F0A0313A42F031709
:040FF00003130800DF
:10100000EA016A08013C031C52286A086807EC00E0
:10101000AC018B1BAC178B136708F3006C08F40052
:101020008A1198258A15AC1B8B17EB016B08093CBC
:10103000031C50286608ED001430EE008A11382792
:101040008A157808EC000A30ED006A08EE008A1173
:1010500038278A1578086C076B07E90066080C3C8E
:10106000031D3D28AC018B1BAC178B13F3018A11B8
:10107000A5258A15AC1B8B174E28FA0169088A1121
:101080004A228A15EC00AC018B1BAC178B136C0841
:10109000F3008A11A5258A15AC1B8B17EB0A1628BD
:1010A000EA0A0128080003081F3983008316031782
:1010B000871508300313990002309A00A630980073
:1010C000903083129800FF30B300C401C701541060
:1010D000D501D701D601831603170908C039890045
:1010E00003131F129F120030031788008312870119
:1010F0008801890183138A1103138F2E8A15043006
:10110000DA000230DB008A112C278A1547085302C7
:1011100003199528AC018B1BAC178B138A11BD25C5
:101120008A15AC1B8B174708D300C708031DF82886
:10113000470853020319A728AC018B1BAC178B136C
:101140008A11BD258A15AC1B8B174708D300AC014B
:101150008B1BAC178B13F301F4018A1198258A15A8
:10116000AC1B8B17623003178D0006308F008A117D
:101170000313A4278A1530304802E400E6005A0819
:10118000E7005B08E800002030304902E4000C3042
:101190005A07E5006408E6006508E7005B08E80018
:1011A000002018305A07E4000B30E6006408E7001E
:1011B0005B08E800002030304A02E40024305A077F
:1011C000E5006408E6006508E7005B08E800002029
:1011D00030304B02E40030305A07E5006408E60086
:1011E0006508E7005B08E80000204708D300D90A3B
:1011F000470BA0294708530203190929AC018B1B8F
:10120000AC178B138A11BD258A15AC1B8B174708A9
:10121000D300AC018B1BAC178B130430F3000130EF
:10122000F4008A1198258A15AC1B8B1768300317B8
:101230008D0006308F008A110313A4278A15AC0194
:101240008B1BAC178B130530F3000230F4008A11AE
:1012500098258A15AC1B8B174C08E7008A115D276F
:101260008A154D08E7008A115D278A156E3003172D
:101270008D0006308F008A110313A4278A15AC0154
:101280008B1BAC178B130330F3008A11A5258A152D
:10129000AC1B8B17AC018B1BAC178B130330F3000B
:1012A0008A11A5258A15AC1B8B17AC018B1BAC17BB
:1012B0008B13F3018A11A5258A15AC1B8B176F3090
:1012C00003178D0006308F008A110313A4278A1597
:1012D000AC018B1BAC178B130430F3000330F4000C
:1012E0008A1198258A15AC1B8B17703003178D0057
:1012F00006308F008A110313A4278A15AC018B1BBB
:10130000AC178B130530F3000430F4008A119825D4
:101310008A15AC1B8B175008E7008A115D278A15C8
:101320005108E7008A115D278A15743003178D0074
:1013300006308F008A110313A4278A154708D300AB
:101340004708023C031DE029470853020319B3294B
:10135000AC018B1BAC178B138A11BD258A15AC1BF6
:101360008B174708D300AC018B1BAC178B13F30111
:10137000F4018A1198258A15AC1B8B17DD01DC015D
:101380005D08013C031CE029031DCA295C08F83CE8
:10139000031CE0295D08FA005C088A1157238A15AE
:1013A000E400AC018B1BAC178B136408F3008A11AB
:1013B000A5258A15AC1B8B17DC0A0319DD0AC02989
:1013C0004708033C031D5C2A470853020319F3290D
:1013D000AC018B1BAC178B138A11BD258A15AC1B76
:1013E0008B174708D3000430DE000230DF000130E5
:1013F000E0000230E1000130E2000430E300AC0123
:101400008B1BAC178B130130F300F4018A11982564
:101410008A15AC1B8B17763003178D0006308F00B2
:101420008A110313A4278A156008E6005E08E70006
:101430005F08E80000200C305E07E4006108E60069
:101440006408E7005F08E800002018305E07E40049
:101450000B30E6006408E7005F08E8000020243055
:101460005E07E4006208E6006408E7005F08E80041
:10147000002030305E07E4006308E6006408E700FF
:101480005F08E8000020303048026002031D5A2A3D
:10149000303049026102031D5A2A30304A0262028A
:1014A000031D5A2A30304B026302031D5A2A8A1147
:0C14B0002C278A154708D300862863000B
:04400E00E22C000799
:00000001FF
;PIC16F887
;CRC=DAD4  CREATED="16-Dec-19 15:51"
