:1000000008308A0000280000FF00030E8301A100D1
:100010000A08A0008A010408A2007708A300780853
:10002000A4007908A5007A08A6007B08A70003179A
:100030000D080313A80003170F080313A9000317E3
:100040000C080313AA0003170E080313AB00831355
:1000500083120B1E2D288B1856288C308400801E8E
:1000600033288C1A5928220884002308F700240812
:10007000F8002508F9002608FA002708FB002808E0
:1000800003178D000313290803178F0003132A0891
:1000900003178C0003132B0803178E00031320088B
:1000A0008A00210E8300FF0E7F0E09008A110A12BA
:1000B000192C8A110A128A2B0A108A100A11633E1F
:1000C00003188A0A820000340034003400340034FB
:1000D000003400345F34003400340034073400341A
:1000E0000734003414347F3414347F34143424340B
:1000F0002A347F342A3412342334133408346434D9
:1001000062343634493455342234503400340534A2
:1001100003340034003400341C34223441340034BD
:100120000034413422341C340034143408343E3456
:1001300008341434083408343E34083408340034A5
:10014000503430340034003408340834083408346F
:100150000834003460346034003400342034103407
:100160000834043402343E345134493445343E3486
:10017000003442347F3440340034423461345134EA
:10018000493446342134413445344B343134183405
:10019000143412347F341034273445344534453414
:1001A00039343C344A3449344934303401347134BC
:1001B0000934053403343634493449344934363447
:1001C00006344934493429341E3400343634363444
:1001D00000340034003456343634003400340834EB
:1001E00014342234413400341434143414341434A8
:1001F00014340034413422341434083402340134C9
:1002000051340934063432344934793441343E347B
:100210007E341134113411347E347F3449344934FE
:10022000493436343E3441344134413422347F340D
:100230004134413422341C347F3449344934493404
:1002400041347F3409340934093401343E344134B3
:10025000493449347A347F340834083408347F34DC
:10026000003441347F34413400342034403441344C
:100270003F3401347F3408341434223441347F3421
:1002800040344034403440347F3402340C3402343F
:100290007F347F340434083410347F343E344134A6
:1002A000413441343E340A148A100A115A3E03186C
:1002B0008A0A82007F3409340934093406343E3412
:1002C0004134513421345E347F34093419342934B3
:1002D00046344634493449344934313401340134E4
:1002E0007F34013401343F344034403440343F34AF
:1002F0001F342034403420341F343F3440343834E9
:1003000040343F34633414340834143463340734D1
:100310000834703408340734613451344934453476
:10032000433400347F3441344134003402340434E3
:100330000834103420340034413441347F340034E4
:100340000434023401340234043440344034403440
:100350004034403400340134023404340034203456
:1003600054345434543478347F344834443444342A
:100370003834383444344434443420343834443405
:10038000443448347F343834543454345434183476
:1003900008347E340934013402340C34523452347B
:1003A00052343E347F340834043404347834003416
:1003B00044347D34403400342034403444343D34BB
:1003C00000347F3410342834443400340034413451
:1003D0007F34403400347C340434183404347834AA
:1003E0007C340834043404347834383444344434A9
:1003F000443438347C341434143414340834083419
:100400001434143418347C347C3408340434043404
:1004100008344834543454345434203404343F348D
:100420004434403420343C344034403420347C3430
:100430001C342034403420341C343C3440343034B8
:1004400040343C34443428341034283444340C349C
:100450005034503450343C344434643454344C3488
:100460004434003408343634413400340034003429
:100470007F340034003400344134363408340034DE
:100480001034083408341034083478344634413495
:1004900046347834FB0002307A078A007B08533EEA
:1004A00003188A0A8200F034FC340E340334833497
:1004B000C334C3346734FE34F8340F347F347634B5
:1004C000C334C334C134C03460343F341F340C34BB
:1004D000063406340334FF34FF34FF340034003470
:1004E0000034C034C034C034C034FF34FF34FF346F
:1004F000C034C034C0340634063403340334033407
:100500000334C734FE347C340034E034F034F8343F
:10051000DC34CE34C734C334C134C034C0340334C3
:1005200003348334833483348334C334FF347E34DC
:100530003834C034C034C134C134C134C134C1349E
:10054000E3347F343E3400348034E03470343C345F
:100550001E340734FF34FF3400340F340F340D34AD
:100560000C340C340C340C34FF34FF340C34FF34B2
:10057000FF34C334C334C334C334C3348334033487
:100580000334C034C034C034C034C034E0346134C7
:100590007F343F340034FC34FE34CF34C734C334AA
:1005A000C334C334C334833400343F347F34E13440
:1005B000C034C034C034C034E1347F343F340334F9
:1005C00003340334033403348334E334FB343F34DF
:1005D0000F340034C034F03478343E340F340334F4
:1005E0000034003400343C347E34E734C334C33444
:1005F000C334C334E7347E343C343E347F34E33494
:10060000C134C134C134C134E3347F343E34FC34AA
:10061000FE34873403340334033403348734FE3424
:10062000FC340034C134C334C334C334C334E3347E
:1006300073343F341F340034003400340034003449
:10064000003400340034003400340034003400340A
:10065000E034F034F034E03400340034003400345A
:10066000003400343034703470347034003400346A
:1006700000340034003400346034E034E034E034DA
:1006800000340034003400340034003400340034CA
:1006900000340034003400340034003400340034BA
:1006A0000034003400340034003400340034432477
:1006B00055104E24412A000054245510C8204900EA
:1006C00054245510C220000154245510D42A00018E
:1006D00054245510CE204D0054245510D3205500DD
:1006E00054245510C2205900D722CC21CF26C51042
:1006F0000001D3306E107034E136A031F5300001C6
:100700004E24CF26A01B0001C3376E37E531F434E9
:10071000EE3320008C1E8A2B1A08C6004608403C87
:10072000031D942B4914B62B4608233C031D9A2B1A
:10073000C914B62B4608243C031DAA2B6A08840062
:1007400083136B18831746088000EB014A30EA00D8
:10075000C910B62BC91CB62B6A08840083136B180A
:10076000831746088000EA0A0319EB0A8C128A11E3
:100770000A12332813088316330883129300831652
:10078000140C031CC02B83121308F80008008316F6
:10079000881183128811831685128312851283169D
:1007A0003208B3008312BA2383168512831285168A
:1007B00008008316300807394038B100B2008312B0
:1007C000C72383162F087F398038B100B200831207
:1007D000C723080083168811831288158316851293
:1007E000831285120330F700F70BF42B83162F08C2
:1007F000B3008312BA23831685128312851608006C
:100800008316AF01B0018312D9230130B300F83051
:10081000B200B208031D0F2CB3080319182C83165D
:10082000AF018312EA2332080319B303B203092C80
:100830000800B708031D402C0130B70083160816C6
:100840008312B901081AB90A831688168312B801EF
:10085000881AB80A8101BA0A00248E018F018E011C
:10086000B808031DBA0A3A08033C031CBA013A0847
:10087000023C031D3F2C40300C1E3C2C9900462CA2
:100880000108313C0318462CB70181018B108A11F5
:100890000A123328432455104E24412A00015424BF
:1008A0005510C820490054245510C220000154247A
:1008B0005510D42A000154245510CE204D00542444
:1008C0005510D320550054245510C2205900200043
:1008D000CC376132693767172E170001D4326D3873
:1008E0002E1D200020004300C83A6D173A10000169
:1008F000A0120001D732613AE8327210F437E430C6
:10090000791D000120004139EC306D10613A3A0048
:100910004139EC306D10613A3A00A1308400831304
:1009200000080319A02C0630F800F701F70B962CED
:10093000F80B952C7B30F700F70B9C2C800B932C3D
:100940000800F701F8018316290803102A18F70791
:10095000F70CF80CAA18F707F70CF80C2A19F70788
:10096000F70CF80CAA19F707F70CF80C2A1AF70776
:10097000F70CF80CAA1AF707F70CF80C2A1BF70764
:10098000F70CF80CAA1BF707F70CF80C83120800F9
:10099000831623088312AF002F081F3C0318182D5D
:1009A0002F087F3C031C182DAE012E08043C031CAD
:1009B0000E2D2F084F3C031CED2C2F08E03E831614
:1009C000A500A9000530AA008312A1247808B00070
:1009D0002E0830075C20F800B1002F084F3C0318A8
:1009E000012D2F08B03E8316A500A9000530AA00EE
:1009F0008312A1247808B0002E0830075321F80094
:100A0000B100AC018B1BAC178B1331088316AF0000
:100A10008312EA23AC1B8B17AE0AD52CAC018B1BBF
:100A2000AC178B138316AF018312EA23AC1B8B1711
:100A300008000B088316A00083128B13831603177C
:100A40008C170C14000000000313A01F2A2D831222
:100A50008B178316831203170C087F3903198B2D0C
:100A600083160313A000831203170D0883160313C4
:100A7000A100831203170F0883160313A200200896
:100A8000A3008312C82483162108831203178D0044
:100A9000831603132208831203178F0003130B0816
:100AA0008316A30083128B13831603178C170C1461
:100AB000000000000313A31F602D83128B17831601
:100AC000831203170C0D0E0D7F3903198B2D83161E
:100AD0000313A000831203170D0883160313A1004C
:100AE000831203170F0883160313A2002008A30024
:100AF0008312C82483162108831203178D008316DE
:100B000003132208831203178F008D0A03198F0A1B
:100B10000313192D0317031308008316031709087D
:100B2000C039890003131F129F1200300317880079
:100B3000831203131F108316031787152A3003131C
:100B4000990000309A00A6309800903083129800E7
:100B500083168C16C03083128B040B168316011378
:100B60000108C039073881003530831290008E01AA
:100B70000B308F00DC308E008316881183128815AD
:100B80008316851283128516C8308316A0000330A1
:100B9000A002031CD52DA030840083130008031984
:100BA000D52DD32DD32D800BD22D081183120811F2
:100BB00032308316A10083128D248316081183120C
:100BC0000815AC018B1BAC178B1321308316B200B8
:100BD0008312C723AC1B8B17AC018B1BAC178B1379
:100BE000C8308316B2008312C723AC1B8B17AC012D
:100BF0008B1BAC178B1312308316B2008312C723E2
:100C0000AC1B8B17AC018B1BAC178B1320308316DE
:100C1000B2008312C723AC1B8B17AC018B1BAC1724
:100C20008B1309308316B2008312C723AC1B8B17BA
:100C300032308316A10083128D24AC018B1BAC17BC
:100C40008B130024AC1B8B170A308316A100831270
:100C50008D24AC018B1BAC178B1308308316B200AC
:100C60008312C723AC1B8B170A308316A100831293
:100C70008D24AC018B1BAC178B130C308316B20088
:100C80008312C723AC1B8B170C14AC018B1BAC1746
:100C90008B1316308316AF000130B0008312D923B6
:100CA000AC1B8B17743003178D0003308F000313B8
:100CB0001925AC018B1BAC178B130C308316AF00BE
:100CC0000230B0008312D923AC1B8B177930031785
:100CD0008D0003308F0003131925AC018B1BAC175B
:100CE0008B131B308316AF000330B0008312D9235F
:100CF000AC1B8B17803003178D0003308F0003135C
:100D0000192508308316A000FA30A10083128D2423
:100D10008316A00B842E8312AC018B1BAC178B1394
:100D20000024AC1B8B17AC018B1BAC178B130A3048
:100D30008316AF000230B0008312D923AC1B8B178F
:100D4000843003178D0003308F0003131925AC0185
:100D50008B1BAC178B130F308316AF000330B00022
:100D60008312D923AC1B8B174918D72EAC018B1BD0
:100D7000AC178B1380308316AF008312EA23AC1BB1
:100D80008B17AC018B1BAC178B138316AF0183122F
:100D9000EA23AC1B8B1702308316A000FA30A100A7
:100DA00083128D248316A00BCE2E8312B42EAC0199
:100DB0008B1BAC178B130024AC1B8B17C918E32EAD
:100DC0005308BF00DE2E5408BF008A150A125028AF
:100DD0008316881083128814831605128312051651
:100DE00032308316A10083128D24831605128312DC
:100DF00005128316881083128810080083162108B4
:100E0000F80120020318072F2008F700132FF7011D
:100E10000830A200A00DF70D210877020318F70093
:100E2000F80DA20B0A2F831208008316A6012608CC
:100E3000013C031C6E2F26082407A8008312AC0176
:100E40008B1BAC178B1383162308AF002808B00048
:100E50008312D923AC1B8B178316A7012708093CE3
:100E6000031C6C2F2208A9001430AA008312A124AD
:100E700078088316A8000A30A9002608AA00831261
:100E8000A1247808831628072707A50022080C3C10
:100E9000031D572F8312AC018B1BAC178B138316CA
:100EA000AF018312EA23AC1B8B17692F8316FA015B
:100EB000250883124A228316A8008312AC018B1BDB
:100EC000AC178B1383162808AF008312EA23AC1BE0
:100ED0008B178316A70A2E2FA60A172F8312080036
:1010000003081F398300831603178715083003135D
:10101000990002309A00A630980090308312980010
:10102000FF30AD00941200308316940030308312EC
:101030009400AD122D088316870083122D162D08FB
:10104000831687008312AD112D0883168700831243
:10105000B501B401B601B701BA01BB01BC01BD01C4
:10106000BE01BF01C001C101C201C301C401C5016C
:101070004910C910EB014A30EA008316031709082A
:10108000C039890003131F129F1200300317880014
:10109000831287018801890183138A1103138D2D1F
:1010A0008A150430EC000230ED000A30EE00023008
:1010B000EF008A11E8268A150C1C8F280C108E016F
:1010C0000B308F00DC308E00C70A47080A3C031D36
:1010D0007728C80A48083B3C03187628C8018A11BB
:1010E000E8268A1540300C1E73289900C70148086D
:1010F0008316A0000A30A1008A118312FE268A15E9
:1011000030307807BF0048088316A0000A30A100DD
:101110008A118312FE268A1530307707C0003A0BF9
:10112000202A4A08BB004B08BC004C08BD004D08F3
:10113000BE004E08C300AC018B1BAC178B131930DB
:101140008316AF00B0018A118312D9238A15AC1B14
:101150008B17303043028316A000A3008A1183123C
:10116000C8248A154308303C031DBF284A300317A2
:101170008D0004308F008A11031319258A15430846
:10118000313C031DCC284F3003178D0004308F00F5
:101190008A11031319258A154308323C031DD928E7
:1011A000533003178D0004308F008A110313192563
:1011B0008A154308333C031DE628573003178D007A
:1011C00004308F008A11031319258A154308343C13
:1011D000031DF3285B3003178D0004308F008A1144
:1011E000031319258A154308353C031D00295F3078
:1011F00003178D0004308F008A11031319258A15F7
:101200004308363C031D0D29633003178D0004305D
:101210008F008A11031319258A1530303B0283167B
:10122000A000A20083126C088316A30083126D082D
:101230008316A4008A11831215278A1530303C02C8
:101240008316A0000C3083126C078316A1002008BF
:10125000A2002108A30083126D088316A4008A113E
:10126000831215278A1518306C078316A0000B30DF
:10127000A2002008A30083126D088316A4008A111F
:10128000831215278A1530303D028316A0002430C2
:1012900083126C078316A1002008A2002108A30076
:1012A00083126D088316A4008A11831215278A15EC
:1012B00030303E028316A000303083126C07831654
:1012C000A1002008A2002108A30083126D08831644
:1012D000A4008A11831215278A15673003178D0021
:1012E00004308F008A11031319258A153F088316CD
:1012F000A3008A118312C8248A1540088316A3000C
:101300008A118312C8248A15AC018B1BAC178B136E
:1013100028308316AF000530B0008A118312D9231C
:101320008A15AC1B8B17AC018B1BAC178B13803051
:101330008316AF008A118312EA238A15AC1B8B1720
:10134000AC018B1BAC178B1380308316AF008A1156
:101350008312EA238A15AC1B8B17AC018B1BAC17CD
:101360008B138316AF018A118312EA238A15AC1BF3
:101370008B17AC018B1BAC178B1360308316AF003F
:101380008A118312EA238A15AC1B8B17AC018B1BC5
:10139000AC178B1360308316AF008A118312EA23D7
:1013A0008A15AC1B8B17AC018B1BAC178B138316E8
:1013B000AF018A118312EA238A15AC1B8B17AC018B
:1013C0008B1BAC178B1380308316AF008A118312EE
:1013D000EA238A15AC1B8B17AC018B1BAC178B1344
:1013E00080308316AF008A118312EA238A15AC1B62
:1013F0008B17AC018B1BAC178B138316AF018A11B3
:101400008312EA238A15AC1B8B17AC018B1BAC171C
:101410008B1380308316AF008A118312EA238A155A
:10142000AC1B8B17AC018B1BAC178B138030831656
:10143000AF008A118312EA238A15AC1B8B17262E64
:10144000BA08031D962B4F08C1005008C20051086E
:10145000C4005208C500C108031D4F2AAC018B1BF4
:10146000AC178B138A1100248A15AC1B8B17AC01A7
:101470008B1BAC178B130A308316AF000330B00000
:101480008A118312D9238A15AC1B8B176830031776
:101490008D0004308F008A11031319258A15AC01C1
:1014A0008B1BAC178B1304308316AF000130B000D8
:1014B0008A118312D9238A15AC1B8B176E30031740
:1014C0008D0004308F008A11031319258A15AC0191
:1014D0008B1BAC178B1337308316AF000130B00075
:1014E0008A118312D9238A15AC1B8B1741088316E6
:1014F000A3008A118312C8248A1542088316A30008
:101500008A118312C8248A15723003178D000430A3
:101510008F008A11031319258A15AC018B1BAC1798
:101520008B1303308316AF008A118312EA238A15C6
:10153000AC1B8B17AC018B1BAC178B1303308316C2
:10154000AF008A118312EA238A15AC1B8B17AC01FA
:101550008B1BAC178B138316AF018A118312EA23FE
:101560008A15AC1B8B17733003178D0004308F0066
:101570008A11031319258A15AC018B1BAC178B1329
:1015800005308316AF000330B0008A118312D923CF
:101590008A15AC1B8B17743003178D0004308F0035
:1015A0008A11031319258A15AC018B1BAC178B13F9
:1015B00037308316AF000330B0008A118312D9236D
:1015C0008A15AC1B8B1744088316A3008A1183125B
:1015D000C8248A1545088316A3008A118312C824DB
:1015E0008A15783003178D0004308F008A11031399
:1015F00019258A15AC018B1BAC178B132830831669
:10160000AF000530B0008A118312D9238A15AC1BB4
:101610008B17AC018B1BAC178B1360308316AF009C
:101620008A118312EA238A15AC1B8B17AC018B1B22
:10163000AC178B1360308316AF008A118312EA2334
:101640008A15AC1B8B17AC018B1BAC178B13831645
:10165000AF018A118312EA238A15AC1B8B17AC01E8
:101660008B1BAC178B1380308316AF008A1183124B
:10167000EA238A15AC1B8B17AC018B1BAC178B13A1
:1016800080308316AF008A118312EA238A15AC1BBF
:101690008B17AC018B1BAC178B138316AF018A1110
:1016A0008312EA238A15AC1B8B17AC018B1BAC177A
:1016B0008B1380308316AF008A118312EA238A15B8
:1016C000AC1B8B17AC018B1BAC178B1380308316B4
:1016D000AF008A118312EA238A15AC1B8B17AC0169
:1016E0008B1BAC178B138316AF018A118312EA236D
:1016F0008A15AC1B8B17AC018B1BAC178B1380307E
:101700008316AF008A118312EA238A15AC1B8B174C
:10171000AC018B1BAC178B1380308316AF008A1182
:101720008312EA238A15AC1B8B17262E3A08023C3B
:10173000031D922CAC018B1BAC178B138316AF01CE
:10174000B0018A118312D9238A15AC1B8B177A300A
:1017500003178D0004308F008A11031319258A1591
:10176000AC018B1BAC178B130F308316AF0002300C
:10177000B0008A118312D9238A15AC1B8B1709304C
:10178000F00070081F3C031CF62B4A3070078400E1
:1017900083130008243C0319F62B4A307007840099
:1017A00083130008203C031DE82B09307002F10070
:1017B00071080E3C031CE72B823003178D000430A8
:1017C0008F008A11031319258A15F10AD82BF42BDF
:1017D0004A3070078400831300088316A000A3001A
:1017E0008A118312C8248A15F00AC12BAC018B1B05
:1017F000AC178B1328308316AF000530B0008A1168
:101800008312D9238A15AC1B8B17AC018B1BAC1729
:101810008B1380308316AF008A118312EA238A1556
:10182000AC1B8B17AC018B1BAC178B138030831652
:10183000AF008A118312EA238A15AC1B8B17AC0107
:101840008B1BAC178B138316AF018A118312EA230B
:101850008A15AC1B8B17AC018B1BAC178B1380301C
:101860008316AF008A118312EA238A15AC1B8B17EB
:10187000AC018B1BAC178B1380308316AF008A1121
:101880008312EA238A15AC1B8B17AC018B1BAC1798
:101890008B138316AF018A118312EA238A15AC1BBE
:1018A0008B17AC018B1BAC178B1360308316AF000A
:1018B0008A118312EA238A15AC1B8B17AC018B1B90
:1018C000AC178B1360308316AF008A118312EA23A2
:1018D0008A15AC1B8B17AC018B1BAC178B138316B3
:1018E000AF018A118312EA238A15AC1B8B17AC0156
:1018F0008B1BAC178B1380308316AF008A118312B9
:10190000EA238A15AC1B8B17AC018B1BAC178B130E
:1019100080308316AF008A118312EA238A15AC1B2C
:101920008B17262E3A08033C031D262E0430F200A6
:101930000230F3000230F4000330F500F601FC0041
:10194000AC018B1BAC178B1301308316AF00B001B9
:101950008A118312D9238A15AC1B8B178330031786
:101960008D0004308F008A11031319258A1574081D
:101970008316A20083126E088316A30083126F08D9
:101980008316A4008A11831215278A150C306E075E
:101990008316A0007508A2002008A30083126F0818
:1019A0008316A4008A11831215278A1518306E0732
:1019B0008316A0000B30A2002008A30083126F083A
:1019C0008316A4008A11831215278A1524306E0706
:1019D0008316A0007608A2002008A30083126F08D7
:1019E0008316A4008A11831215278A1530306E07DA
:1019F0008316A0007C08A2002008A30083126F08B1
:101A00008316A4008A11831215278A15AC018B1B3B
:101A1000AC178B1328308316AF000530B0008A1145
:101A20008312D9238A15AC1B8B17AC018B1BAC1707
:101A30008B1380308316AF008A118312EA238A1534
:101A4000AC1B8B17AC018B1BAC178B138030831630
:101A5000AF008A118312EA238A15AC1B8B17AC01E5
:101A60008B1BAC178B138316AF018A118312EA23E9
:101A70008A15AC1B8B17AC018B1BAC178B138030FA
:101A80008316AF008A118312EA238A15AC1B8B17C9
:101A9000AC018B1BAC178B1380308316AF008A11FF
:101AA0008312EA238A15AC1B8B17AC018B1BAC1776
:101AB0008B138316AF018A118312EA238A15AC1B9C
:101AC0008B17AC018B1BAC178B1380308316AF00C8
:101AD0008A118312EA238A15AC1B8B17AC018B1B6E
:101AE000AC178B1380308316AF008A118312EA2360
:101AF0008A15AC1B8B17AC018B1BAC178B13831691
:101B0000AF018A118312EA238A15AC1B8B17AC0133
:101B10008B1BAC178B1360308316AF008A118312B6
:101B2000EA238A15AC1B8B17AC018B1BAC178B13EC
:101B300060308316AF008A118312EA238A15AC1B2A
:101B40008B170130F4000230F5000130F60004304C
:101B5000FC004630FD007D08463C0319B32D83167A
:101B6000051283120516AC018B1BAC178B130130C9
:101B70008316AF00B0018A118312D9238A15AC1BDA
:101B80008B17883003178D0004308F008A110313E0
:101B900019258A1574088316A2007208A300730819
:101BA000A4008A11831215278A150C307207831638
:101BB000A0007508A2002008A3007308A4008A11E1
:101BC000831215278A15183072078316A0000B3070
:101BD000A2002008A3007308A4008A11831215270D
:101BE0008A15243072078316A0007608A200200808
:101BF000A3007308A4008A11831215278A153030B8
:101C000072078316A0007C08A2002008A3007308B6
:101C1000A4008A11831215278A1530303B02740202
:101C2000031D242E30303C027502031D242E30305B
:101C30003D027602031D242E30303E027C02031D3D
:101C4000242E8A11E8268A153A08C70064308316C4
:0E1C5000A1008A1183128D248A155C2863007E
:04400E00E22C000799
:00000001FF
;PIC16F887
;CRC=5952  CREATED="28-Dec-19 14:33"
